:020000040800F2
:10000000004000200D240008690400086B0400086B
:100010006D0400086F04000871040008000000006F
:100020000000000000000000000000007304000851
:100030007504000800000000770400087904000837
:100040005D2400085D2400085D2400085D2400088C
:100050005D2400085D2400085D2400085D2400087C
:100060005D2400085D2400085D2400085D2400086C
:100070005D2400085D2400085D2400085D2400085C
:100080005D2400085D240008810400085D24000848
:100090005D2400085D2400085D2400085D2400083C
:1000A0005D2400085D2400085D2400085D2400082C
:1000B0005D24000800000000000000005D2400082E
:1000C0005D2400085D2400085D2400080000000095
:1000D0005D2400085D2400085D2400085D240008FC
:1000E0005D2400085D2400085D2400080000000075
:1000F0000000000000000000000000000000000000
:100100000000000000000000000000005D24000866
:1001100000000000000000005D2400080000000056
:1001200000000000000000000000000000000000CF
:1001300000000000000000000000000000000000BF
:100140005D2400085D24000800000000000000009D
:10015000000000000000000000000000000000009F
:100160005D2400085D2400085D2400085D2400086B
:100170005D240008000000000000000000000000F6
:08018000000000005D240008EE
:1001880010B5054C237833B9044B13B10448AFF3C9
:1001980000800123237010BD0C0000200000000027
:1001A800B824000808B5034B1BB103490348AFF353
:1001B800008008BD0000000010000020B8240008DE
:1001C800034613F8012B002AFBD1181A013870478F
:1001D80070B588B000240394049405940694079499
:1001E8001A4B5A6942F400225A615A6902F40022F1
:1001F8000092009A5A6942F400325A615A6902F42C
:1002080000320192019A5A6942F480225A615B696C
:1002180003F480230293029B0D4D224608212846B1
:1002280001F023FD0126039603230493059403A9F3
:10023800084801F04FFC082303930496059406949C
:1002480003A9284601F046FC08B070BD0010024022
:10025800000400480008004870B586B000240094E7
:1002680001940294039404940594124D4FF0A04312
:100278002B606C60AC602C6101266E7685F820409E
:10028800EC62AE62EC60EE6185F8304004236B618D
:100298002C766C63284600F06DFA0096019603945C
:1002A8000294049405946946284600F0B9FC06B007
:1002B80070BD00BF5C00002008B50948094B036009
:1002C8004FF4E133436000238360C36003610C2271
:1002D80042618361C3610362436201F078FF08BD34
:1002E800C00000200044004030B585B000240194CF
:1002F80002940394074D084B2B60284601F0A6FF93
:1003080001940294224601A9284601F0E5FF05B0B0
:1003180030BD00BFAC0000200074004008B509489B
:10032800094B0360402343600C23C360002303612F
:100338004FF44032C2614FF440420262436201F01E
:10034800F1FF08BD280000203C00014030B583B013
:1003580004460D460846FFF733FF0A2382B22946B2
:10036800204601F093FE40F60D23ADF804300A2331
:10037800022201A9204601F089FE03B030BD10B564
:100388009CB0002413941494159418940D940E940E
:100398000F941094119434222146684602F080F894
:1003A80002231293012216921022179219931A947B
:1003B8001B9412A800F01CFE0F230D930E940F94AB
:1003C8001094119421460DA801F064F9802300933C
:1003D8004FF480730693684601F062FA1CB010BDB2
:1003E80010B500F0E1FDFFF7CAFFFFF7F1FEFFF7D8
:1003F80033FFFFF761FFFFF777FFFFF78FFF114C20
:1004080011492046FFF7A2FF104800F0A3FA002187
:100418000F4801F03FFF0F492046FFF797FF0024E0
:1004280084F00104224608210B4801F01EFC01213A
:100438000A4801F013FC034600221146044801F063
:1004480017FFEDE7C0000020D02400085C00002062
:10045800AC000020E0240008000400480008004820
:100468007047FEE7FEE7FEE7FEE770477047704714
:1004780008B500F0ABFD08BD08B5024800F0B4FAB5
:1004880008BD00BF5C0000207047000082B00A4B26
:100498009A6942F001029A619A6902F00102009297
:1004A800009ADA6942F08052DA61DB6903F080531E
:1004B8000193019B02B070470010024030B589B02B
:1004C8000023039304930593069307930368B3F1FA
:1004D800A04F01D009B030BD03F1704303F50433D8
:1004E8005A6942F080525A615A6902F08052009269
:1004F800009A5A6942F400225A615A6902F40022A9
:100508000192019A5A6942F400325A615B6903F414
:1005180000330293029B08230393032504950024C8
:10052800059403A90A4801F0D5FA01230393049519
:10053800059403A94FF0904001F0CCFA22462146D9
:10054800122001F0A9FB122001F0DAFBC2E700BF7C
:100558000008004800B589B000230393049305936D
:10056800069307930268134B9A4202D009B05DF8CC
:1005780004FB03F5CE33DA6942F00052DA61DA6936
:1005880002F000520192019A5A6942F400325A610B
:100598005B6903F400330293029B10230393032344
:1005A80004930023059303A94FF0904001F092FAB9
:1005B800DCE700BF0074004000B587B0002301935A
:1005C800029303930493059302680F4B9A4202D057
:1005D80007B05DF804FB03F5873303F5E2735A6946
:1005E80042F400325A615B6903F400330093009BC4
:1005F800E0230193032302930023039301A94FF0FF
:10060800904001F067FAE3E73C00014000B589B08B
:100618000023039304930593069307930268154BED
:100628009A4202D009B05DF804FB03F5E633DA69B3
:1006380042F40032DA61DA6902F400320192019A76
:100648005A6942F400325A615B6903F40033029339
:10065800029B0C2303930223049300230593032393
:1006680006930723079303A94FF0904001F032FA4D
:10067800D8E700BF004400407047704738B50268AB
:10068800936803F00303012B01D0002038BD044612
:10069800136813F0010F2ED0936803F00D03012B9C
:1006A80009D0036C43F010030364436C43F0010367
:1006B80043640120EAE7936843F002039360036808
:1006C80003221A6000F08EFC054623689B6813F02D
:1006D800010F0ED000F086FC401B0228F5D9236CD0
:1006E80043F010032364636C43F001036364012047
:1006F800CCE70020CAE70020C8E7000038B5044668
:100708000268936803F00303012B0DD09168184B1E
:1007180019420FD0236C43F010032364636C43F039
:1007280001036364012038BD136813F0010FEDD095
:100738000020F8E7936843F00103936000F052FC4F
:10074800054623681B6813F0010F0ED100F04AFC20
:10075800431B022BF5D9236C43F010032364636C0D
:1007680043F0010363640120DDE70020DBE700BFFD
:100778003F00008030B583B000230193002800F0CB
:10078800DF800446036C13F0100F52D1036CABB139
:10079800002023689A6812F0805F03D09B6813F0EA
:1007A800005F47D0236C23F0120343F01003236447
:1007B800636C43F00103636401203BE04364C3645A
:1007C800836480F83C30FFF779FE23689B6813F058
:1007D800805F01D00020DCE72046FFF74FFF236C45
:1007E80013F0100FD5D10028D3D1236C23F48853EC
:1007F80023F0020343F0020323642268936823F082
:10080800405393602268936843F0805393604D4B44
:100818001B684D4AA2FB03239B0C03EB83035B007D
:10082800019302E0019B013B0193019B002BF9D14D
:10083800AFE70020236C13F0100F78D1002876D191
:100848002568A96811F0040171D1226C22F4817223
:1008580042F002022264AB6803F00303012B45D087
:100868003A4A936823F4403365682B439360627E69
:100878005303656B012D01D04FF480510B43E168A0
:100888000B43A1680B4394F82010012933D0A26AC6
:10089800012A02D0E16A0A4313432268916811F0E1
:1008A8000C0F0CD1D16821F4804121F00201D160F4
:1008B800217E94F83020520042EA813213432168A5
:1008C800CD68234A2A401343CB602369012B25D0E6
:1008D8002268136B23F00F03136300236364236CF4
:1008E80023F0030343F00103236427E02B6813F08C
:1008F800010FBCD1B4E732B9626A013A43EA424314
:1009080043F48033C3E7226C22F0220242F0200233
:100918002264626C42F001026264B8E721680B6BE2
:1009280023F00F03E269013A13430B63D5E7236C05
:1009380023F0120343F010032364012003B030BDF9
:100948000120FBE70800002083DE1B430003005062
:1009580007C0F0FF03689B6813F0040F3CD110B583
:10096800044690F83C30012B38D0012380F83C3005
:10097800FFF7C4FE60BB236C23F4706323F001030C
:1009880043F480732364236C23F480132364226864
:10099800D36813F0007F05D0236C23F4405343F44D
:1009A80080532364236C13F4805F0ED0636C23F0B0
:1009B80006036364002384F83C301C231360226818
:1009C800936843F00403936010BD00236364F1E768
:1009D800002384F83C30F7E7022070470220F3E751
:1009E800704770477047704710B5044603681A6827
:1009F80012F0040F03D05A6812F0040F07D11A68D6
:100A080012F0080F3AD05A6812F0080F36D0226C4C
:100A180012F0100F03D1226C42F400722264D968DC
:100A2800DA6812F4406F23D111F4005F20D11A68FC
:100A380012F0080F1CD09A6812F0040F10D15A68EF
:100A480022F00C025A60236C23F480732364236C15
:100A580013F4805F0CD1236C43F00103236407E097
:100A6800236C43F010032364636C43F00103636455
:100A78002046FFF709FD23680C221A6023681A68CC
:100A880012F0200F03D05A6812F0200F07D11A680D
:100A980012F0400F41D05A6812F0400F3DD0226C3E
:100AA80042F400522264D968DA6C12F0C00F09D0FF
:100AB80011F0007F2BD1DA6812F4406F27D111F4BE
:100AC800005F24D11A6812F0400F20D0DA6812F4BF
:100AD800001F1CD19A6812F0080F10D15A6822F032
:100AE80060025A60236C23F480532364236C13F44C
:100AF800807F0CD1236C43F00103236407E0236C4F
:100B080043F010032364636C43F0010363642046DD
:100B1800FFF766FF236860221A6023681A6812F0DC
:100B2800800F03D05B6813F0800F3ED123681A68EA
:100B380012F4807F03D05B6813F4807F40D1236870
:100B48001A6812F4007F03D05B6813F4007F43D166
:100B580023681A6812F0100F1DD05A6812F0100F8F
:100B680019D0626B012A08D02C4A926812F01F0F24
:100B78003ED1DB6813F0010F0AD0236C43F4806385
:100B88002364636C43F0020363642046FFF775FD3A
:100B9800236810221A6023681A6812F4806F03D041
:100BA8005A6812F4806F29D110BD236C43F4803346
:100BB80023642046FFF760FD236880221A60B5E7AA
:100BC800236C43F4003323642046FFF70BFF2368AC
:100BD8004FF480721A60B2E7236C43F480232364D5
:100BE8002046FFF700FF23684FF400721A60AFE752
:100BF8000A4B9B6813F4404FCAD0BEE7226C42F4FC
:100C080080422264626C42F0080262644FF480629F
:100C18001A602046FFF7E5FEC6E700BF0003005054
:100C280030B482B00022019290F83C20012A00F0F2
:100C38008D810346012280F83C200068826812F00A
:100C4800040F40F078814A68042A32D8046B02EB1A
:100C5800420252001F25954024EA05040D6805FA52
:100C680002F2224302631868826812F00C0F68D1FE
:100C78000A68092A4ED9846902EB42021E3A0725FE
:100C8800954024EA05048D6805FA02F22243826140
:100C980048691C68E268C2F3C102520000FA02F215
:100CA80008690138032800F28B80DFE800F040680B
:100CB800737E092A0ED8446B02EB420252001E3A98
:100CC8001F25954024EA05040D6805FA02F222431F
:100CD8004263C8E70E2A0ED8846B02EB4202520028
:100CE8003C3A1F25954024EA05040D6805FA02F2EE
:100CF80022438263B7E7C46B02EB420252005A3ABE
:100D08001F25954024EA05040D6805FA02F22243DE
:100D1800C263A8E7446902EB42020725954024EA2A
:100D280005048D6805FA02F222434261B0E7206E9D
:100D3800874D0540086842EA8062154345F0004542
:100D480025661868826802F00302012A68D0CA681A
:100D5800012A6BD0D0F8B0200D680124AC4022EAFB
:100D68000402C0F8B0200A68102A00F08880112A0E
:100D780000F09980122A00F09C800020E0E0606E6C
:100D8800734D0540086842EA8062154345F0004506
:100D98006566D6E7A06E6E4D0540086842EA806237
:100DA800154345F00045A566CBE7E56E6848284041
:100DB8000D6842EA8562024342F00042E266C0E7FB
:100DC800226E02F0F8420868B2EB806F03D1226EFF
:100DD80022F0004222661A68506E00F0F8400C6853
:100DE800B0EB846F03D1506E20F0004050661A6853
:100DF800906E00F0F8400C68B0EB846F03D1906EF1
:100E080020F0004090661A68D06E00F0F8400C6838
:100E1800B0EB846F95D1D06E20F00040D06690E79B
:100E2800026812F0010F92D0002089E0D0F8B020BB
:100E38000D680124AC402243C0F8B0200A68092A92
:100E48000ED91D68A86902EB42021B3A0724944098
:100E580020EA04008C6804FA02F20243AA6182E7DD
:100E68001D686869013202EB42020724944020EAB7
:100E780004008C6804FA02F202436A6173E7354998
:100E8800896811F4000F7FF472AF1868816801F067
:100E98000301012914D0102A1CD0112A3AD0122A91
:100EA80042D000204CE02B49896811F0807FECD0BB
:100EB80060E72849896811F4800FE6D000203FE0F8
:100EC800016811F0010FE6D01A6C42F020021A6492
:100ED800012035E0B0F1A04FDFD11E498A6842F405
:100EE80000028A601C4A1268A1F14E61A1F58421B2
:100EF800A1F27D41A1FB0212920C02EB8202520088
:100F0800019202E0019A013A0192019A002AF9D16C
:100F1800002015E0B0F1A04FC1D10E498A6842F017
:100F280080728A6000200BE00A498A6842F48002D5
:100F38008A60002004E01A6C42F020021A64012042
:100F4800002283F83C2002B030BC70470220FAE748
:100F580000F0FF83000300500800002010B504468D
:100F68000E4B18784FF47A73B3FBF0F30C4A106801
:100F7800B0FBF3F000F0D2FE68B90F2C01D90120C4
:100F88000AE0002221464FF0FF3000F085FE054BB5
:100F98001C60002000E0012010BD00BF0000002000
:100FA800080000200400002008B5074A136843F031
:100FB80010031360032000F05DFE0020FFF7CEFF52
:100FC800FFF764FA002008BD00200240034A1168B8
:100FD800034B1B780B441360704700BF400100208F
:100FE80000000020014B1868704700BF4001002036
:100FF800002800F0018370B582B00446036813F03E
:10100800010F3BD0B54B5B6803F00C03042B1ED0DB
:10101800B24B5B6803F00C03082B13D06368B3F57D
:10102800803F68D0002B40F0928003F1804303F5A5
:1010380004331A6822F480321A601A6822F4802273
:101048001A605DE0A54B5B6813F4803FE6D04FF46F
:10105800003393FAA3F3A14B19684FF4003393FAC2
:10106800A3F3B3FA83F303F01F03012202FA03F395
:101078000B4203D06368002B00F0C082236813F092
:10108800020F00F0C580954B5B6813F00C0F00F061
:101098009C80924B5B6803F00C03082B00F08F8058
:1010A8002369002B00F0F280012292FAA2F3B3FA2E
:1010B80083F303F1845303F584139B001A60FFF74D
:1010C80091FF0546022393FAA3F3844B1968022380
:1010D80093FAA3F3B3FA83F303F01F03012202FA8E
:1010E80003F30B4240F0C380FFF77CFF401B02284C
:1010F800E8D903208BE2794A136843F480331360FC
:10110800764AD36A23F00F03A1680B43D36263685E
:10111800002B36D0FFF766FF05464FF4003393FAED
:10112800A3F36E4B19684FF4003393FAA3F3B3FAA1
:1011380083F303F01F03012202FA03F30B429DD14C
:10114800FFF750FF401B6428E7D903205FE2B3F59F
:10115800A02F09D0614B1A6822F480321A601A68ED
:1011680022F480221A60CBE703F18043A3F53C33D5
:101178001A6842F480221A601A6842F480321A60AF
:10118800BEE7FFF72FFF05464FF4003393FAA3F3AA
:10119800524B19684FF4003393FAA3F3B3FA83F36D
:1011A80003F01F03012202FA03F30B423FF466AF78
:1011B800FFF718FF401B6428E6D9032027E2474BB6
:1011C8005B6813F4803F7FF46BAF022393FAA3F3B9
:1011D800424B1968022393FAA3F3B3FA83F303F09B
:1011E8001F03012202FA03F30B4203D0236993423F
:1011F80040F006823948036823F0F8036169F82251
:1012080092FAA2F2B2FA82F201FA02F213430360EE
:10121800236813F0080F00F08D80A369002B61D0BC
:10122800012191FAA1F2B2FA82F22D4B13449B00EC
:101238001960FFF7D7FE0546022393FAA3F293FA43
:10124800A3F293FAA3F2254A516A93FAA3F3B3FAE5
:1012580083F303F01F03012202FA03F30B4269D15F
:10126800FFF7C0FE401B0228E6D90320CFE11B4848
:10127800036823F0F8036169F82292FAA2F2B2FA3D
:1012880082F201FA02F213430360C1E7012393FAE1
:10129800A3F3B3FA83F303F1845303F584139B0098
:1012A80000221A60FFF79EFE0546022393FAA3F375
:1012B8000A4B1968022393FAA3F3B3FA83F303F0F2
:1012C8001F03012202FA03F30B42A1D0FFF78AFEA3
:1012D800401B0228E9D9032099E100BF0010024011
:1012E80020819010012292FAA2F2B2FA82F2B74B50
:1012F80013449B0000221A60FFF774FE0546022380
:1013080093FAA3F293FAA3F293FAA3F2B04A516ABA
:1013180093FAA3F3B3FA83F303F01F03012202FA4B
:1013280003F30B4206D0FFF75DFE401B0228E6D907
:1013380003206CE1236813F0040F00F0A980A44B8C
:10134800DB6913F0805F0BD1A14BDA6942F0805260
:10135800DA61DB6903F080530193019B012500E00A
:1013680000259C4B1B6813F4807F10D0E368012B89
:1013780021D063BB03F1804303F504331A6A22F0DA
:1013880001021A621A6A22F004021A6218E0914AEB
:10139800136843F480731360FFF724FE06468D4BF1
:1013A8001B6813F4807FE1D1FFF71CFE801B6428C3
:1013B800F5D903202BE1864A136A43F0010313622F
:1013C800E368002B3CD0FFF70DFE06462EE0052B08
:1013D80009D07F4B1A6A22F001021A621A6A22F0B7
:1013E80004021A62ECE77A4B1A6A42F004021A62A3
:1013F8001A6A42F001021A62E2E7022393FAA3F39F
:10140800734B596A022393FAA3F3B3FA83F303F0F5
:101418001F03012202FA03F3194238D1FFF7E2FD54
:10142800801B41F28833984200F2EC80022393FA41
:10143800A3F293FAA3F3002BDFD0654B196AE1E717
:10144800FFF7D0FD064618E0022393FAA3F3604B9A
:10145800596A022393FAA3F3B3FA83F303F01F0341
:10146800012202FA03F3194211D0FFF7BBFD801BDA
:1014780041F28833984200F2C780022393FAA3F21C
:1014880093FAA3F3002BDFD0514B196AE1E7B5BB00
:10149800E369002B00F0BA804D4A526802F00C0252
:1014A800082A00F09980022B2FD04FF0807393FA0E
:1014B800A3F3B3FA83F303F1845303F584139B0076
:1014C80000221A60FFF78EFD04464FF0007393FA6E
:1014D800A3F33F4B19684FF0007393FAA3F3B3FAE1
:1014E80083F303F01F03012202FA03F319426BD0BE
:1014F800FFF778FD001B0228E7D9032087E0344A6C
:10150800D36923F08053D361C2E74FF0807393FA15
:10151800A3F3B3FA83F303F1845303F584139B0015
:1015280000221A60FFF75EFD05464FF0007393FA3C
:10153800A3F3274B19684FF0007393FAA3F3B3FA98
:1015480083F303F01F03012202FA03F3194206D0C2
:10155800FFF748FD401B0228E7D9032057E01C4944
:101568004B6823F47413626A206A024313434B6086
:101578004FF0807393FAA3F3B3FA83F303F1845320
:1015880003F584139B0001221A60FFF72BFD044624
:101598004FF0007393FAA3F30D4B19684FF00073E3
:1015A80093FAA3F3B3FA83F303F01F03012202FAB9
:1015B80003F3194206D1FFF715FD001B0228E7D9EE
:1015C800032024E0002022E0002020E02081901069
:1015D8000010024000700040012B1AD0104B5B68CD
:1015E80003F48031226A914215D103F47013626AC0
:1015F800934212D100200AE001207047012006E042
:10160800012004E0032002E0032000E0002002B0F3
:1016180070BD0120FBE70120F9E70120F7E700BFD3
:1016280000100240164B5B6803F00C02082A01D038
:101638001448704703F470114FF4701292FAA2F232
:10164800B2FA82F221FA02F20F49885C0C4AD26A95
:1016580002F00F020F2191FAA1F1B1FA81F1CA400B
:101668000A498A5C13F4803F05D0064BB3FBF2F3BA
:1016780000FB03F07047064B03FB00F0704700BF08
:101688000010024000127A00E8240008F82400083C
:1016980000093D00002800F0BE8070B50D460446E4
:1016A800614B1B6803F007038B420BD25E4A136839
:1016B80023F007030B431360136803F007038B42FF
:1016C80040F0AB80236813F0020F06D0574A5368E6
:1016D80023F0F003A1680B435360236813F0010F54
:1016E8005AD06368012B2DD0022B40D0022292FAE7
:1016F800A2F24E4A1068022292FAA2F2B2FA82F2DA
:1017080002F01F02012101FA02F2104200F0878064
:1017180046494A6822F0030213434B60FFF762FC14
:101728000646424B5B6803F00C036268B3EB820F1A
:1017380032D0FFF757FC801B41F288339842F0D92A
:10174800032067E04FF4003292FAA2F2374A106899
:101758004FF4003292FAA2F2B2FA82F202F01F02B9
:10176800012101FA02F20242D2D1012052E04FF0E7
:10177800007292FAA2F22D4A10684FF0007292FAA3
:10178800A2F2B2FA82F202F01F02012101FA02F279
:101798001042BDD101203DE0234B1B6803F0070335
:1017A800AB420AD9204A136823F007032B4313607E
:1017B800136803F00703AB4233D1236813F0040F17
:1017C80006D01A4A536823F4E063E1680B43536078
:1017D800236813F0080F07D0144A536823F46053A2
:1017E800216943EAC1035360FFF71CFF0F4B5B6895
:1017F80003F0F003F02292FAA2F2B2FA82F2D34096
:101808000B4AD35CD8400B4B18600B4B1868FFF79A
:10181800A5FB002070BD012070470120FAE70120D8
:10182800F8E70120F6E700BF002002400010024060
:10183800082500080800002004000020014B186853
:10184800704700BF0800002008B5FFF7F7FF074BF7
:101858005B6803F4E0634FF4E06292FAA2F2B2FA32
:1018680082F2D340024AD35CD84008BD001002403F
:101878001825000808B5FFF7E1FF074B5B6803F47C
:1018880060534FF4605292FAA2F2B2FA82F2D34055
:10189800024AD35CD84008BD001002401825000851
:1018A800F0B583B00446036813F4803F48D0864BF4
:1018B800DB6913F0805F40F0BE80834BDA6942F049
:1018C8008052DA61DB6903F080530193019B0125A3
:1018D8007E4B1B6813F4807F00F0AF807A4B1B6A45
:1018E80013F4407322D0626802F440729A421DD009
:1018F8007548016A21F440764FF4803393FAA3F2D5
:10190800B2FA82F2724F3A4492004FF0010CC2F8D8
:1019180000C093FAA3F3B3FA83F33B449B0000227D
:101928001A60066211F0010F40F09C80664A136A43
:1019380023F4407361680B431362002D40F0B980B3
:10194800236813F0010F06D05F4A136B23F00303DB
:10195800A1680B431363236813F0200F06D05A4A7B
:10196800136B23F01003E1680B431363236813F42C
:10197800003F06D0544A536823F48003216B0B437D
:101988005360236813F0400F06D04F4A136B23F0BF
:10199800200321690B431363236813F4004F06D017
:1019A800494A136B23F0400361690B4313632368AF
:1019B80013F4007F06D0444A536823F40003E16916
:1019C8000B435360236813F0800F06D03E4AD36A56
:1019D80023F4F873A1690B43D362236813F4805F7F
:1019E80006D0394A136B23F48073216A0B431363BF
:1019F800236813F4802F06D0334A136B23F48063D3
:101A0800616A0B431363236813F4002F06D02E4A30
:101A1800136B23F40063A16A0B431363236813F465
:101A2800801F4DD0284A136B23F40053E16A0B43FF
:101A38001363002045E000254AE7244A136843F46D
:101A480080731360FFF7CEFA0646204B1B6813F429
:101A5800807F7FF443AFFFF7C5FA801B6428F4D971
:101A680003202EE0FFF7BEFA064618E0022393FA99
:101A7800A3F3154B596A022393FAA3F3B3FA83F33A
:101A880003F01F03012202FA03F30B427FF44EAF67
:101A9800FFF7A8FA801B41F2883398420ED8022338
:101AA80093FAA3F293FAA3F3002BDFD0064B196A3B
:101AB800E1E7D36923F08053D36141E7032000E0D5
:101AC800002003B0F0BD00BF0010024000700040CD
:101AD80000819010F0B482B0002236E0032400E0C8
:101AE8000024B4403C430235584E46F82540584C33
:101AF8002568DC4325EA03064F6817F4803F01D0C8
:101B080043EA0506524D2E606D6804EA05064F68E3
:101B180017F4003F01D043EA05064D4D6E60AD68ED
:101B280004EA05064F6817F4801F01D043EA05064A
:101B3800474DAE60ED682C404E6816F4001F01D08A
:101B480043EA0504424BDC6001320B6833FA02F4C5
:101B580079D0012494402340F6D04D68022D01D05D
:101B6800122D10D1D608083650F826C002F0070505
:101B7800AF000F25BD402CEA050C0D69BD4045EAB4
:101B88000C0540F82650D0F800C056000325B54093
:101B9800EF432CEA050C4D6805F00305B54045EA0E
:101BA8000C0505604D6805F1FF3CBCF1010F03D938
:101BB800112D01D0122D10D1856807EA050CCD68CA
:101BC800B54045EA0C058560456825EA04044D687A
:101BD800C5F30015954025434560C46827408C68C7
:101BE800B4403C43C4604C6814F0805FACD0194CDE
:101BF800A56945F00105A561A46904F001040194F3
:101C0800019C9508AE1C114C54F8267002F0030490
:101C1800A6000F24B44027EA0407B0F1904F3FF420
:101C28005FAF0D4CA0420AD004F58064A04208D0F2
:101C380004F58064A0423FF451AF052451E7012424
:101C48004FE702244DE702B0F0BC704700000140A6
:101C580000040140001002400004004803691942D2
:101C680001D001207047002070470AB18161704798
:101C780081627047074AD36823F4E0631B041B0C96
:101C8800000200F4E060034343F0BF6343F4003311
:101C9800D360704700ED00E030B4174BDB68C3F346
:101CA8000223C3F10704042C28BF04241D1D062D9C
:101CB80018D9033B4FF0FF3505FA04F421EA040173
:101CC800994005FA03F322EA0303194300280BDBC2
:101CD8000901C9B200F1604000F5614080F80013C5
:101CE80030BC70470023E5E700F00F000901C9B2D6
:101CF800024B1954F4E700BF00ED00E014ED00E0DA
:101D0800002807DB00F01F02400901239340024A24
:101D180042F82030704700BF00E100E00138B0F120
:101D2800807F0AD2064B5860064AF02182F82310B9
:101D38000020986007221A6070470120704700BF92
:101D480010E000E000ED00E038B504468368026961
:101D5800134342691343C2691343016808686C4A14
:101D6800024013430B602268536823F44053E16830
:101D78000B435360A269236A1A4321688B6823F4D2
:101D8800306313438B602368624A934215D0624ADA
:101D9800934228D002F58062934220D01025E3694F
:101DA800B3F5004F21D0082D00F2A680DFE805F03A
:101DB8006B7C86A491A4A4A49B00584B1B6B03F0D6
:101DC8000303032B09D8DFE803F00204060C0025FF
:101DD800E5E70425E3E70825E1E71025DFE7002527
:101DE800DDE70225DBE70025D9E7082D48D8DFE83D
:101DF80005F0051D2847334747473E00FFF724FDF8
:101E08006268530803EB4003B3FBF2F39BB2A3F100
:101E180010014FF6EF72914271D89AB222F00F0278
:101E2800C3F3420313432268D3606BE0FFF722FD3C
:101E38006268530803EB4003B3FBF2F39BB200253F
:101E4800E5E76268530803F5740303F51053B3FB21
:101E5800F2F39BB20025DAE7FFF7E4FB6268530868
:101E680003EB4003B3FBF2F39BB20025CFE76268B4
:101E7800530803F58033B3FBF2F39BB20025C6E7A2
:101E880001250023C3E7FFF7DFFC626800EB52037C
:101E9800B3FBF2F39BB2A3F110014FF6EF7291423C
:101EA8002FD82268D3602DE0FFF7E4FC626800EBCE
:101EB8005203B3FBF2F39BB20025ECE762685308C8
:101EC80003F5F40303F59053B3FBF2F39BB200253B
:101ED800E1E7FFF7A7FB626800EB5203B3FBF2F3FD
:101EE8009BB20025D7E76268530803F50043B3FBAC
:101EF800F2F39BB20025CEE701250023CBE70125AD
:101F080000E00125002323666366284638BD00BF2C
:101F1800F369FFEF00380140004400400010024020
:101F2800436A13F0010F06D00268536823F40033A4
:101F3800816A0B435360436A13F0020F06D00268AC
:101F4800536823F48033C16A0B435360436A13F028
:101F5800040F06D00268536823F48023016B0B43F7
:101F68005360436A13F0080F06D00268536823F4DD
:101F78000043416B0B435360436A13F0100F06D0C4
:101F88000268936823F48053816B0B439360436A20
:101F980013F0200F06D00268936823F40053C16B36
:101FA8000B439360436A13F0400F0AD002685368EA
:101FB80023F48013016C0B435360036CB3F5801F4B
:101FC8000BD0436A13F0800F06D00268536823F4DD
:101FD8000023816C0B43536070470268536823F4F5
:101FE800C003416C0B435360EBE72DE9F84305460A
:101FF8000F4616469946DDF820802C68E46937EAD2
:1020080004030CBF01240024B4423CD1B8F1FF3FC3
:10201800F3D0FEF7E7FFA0EB0900404521D8B8F15F
:10202800000F1ED02B681A6812F0040FE5D0DA6989
:1020380012F4006FE1D04FF400621A622A68136844
:1020480023F4D07313602A68936823F00103936024
:1020580020236B67AB67EB67002385F8703003209C
:1020680012E02A68136823F4D07313602A6893680F
:1020780023F00103936020236B67AB67002385F887
:102088007030032000E00020BDE8F8832DE9F0411E
:1020980082B01E46436F202B55D104460D4690460C
:1020A800002954D0002A54D090F87030012B52D017
:1020B800012380F870300023C36721234367FEF7AC
:1020C80091FF0746A4F85080A4F85280A368B3F59E
:1020D800805F02D04FF0000814E0236913B14FF07D
:1020E80000080FE0A84600250CE038F8023B2268FB
:1020F800C3F308031385B4F8522092B2013A92B29E
:10210800A4F85220B4F852309BB273B100963B4603
:10211800002280212046FFF768FFF0B9002DE4D0A7
:10212800236815F8012B1A85E5E700963B4600223F
:1021380040212046FFF759FF88B920236367002311
:1021480084F8703000E0022002B0BDE8F081012080
:10215800FAE70120F8E70220F6E70320F4E7032076
:10216800F2E730B583B004460023C367FEF73AFFB1
:10217800054623681B6813F0080F0CD123681B68F9
:1021880013F0040F15D120236367A367002084F898
:10219800700003B030BD6FF07E4300930346002209
:1021A8004FF400112046FFF720FF0028E6D0032057
:1021B800EFE76FF07E4300932B4600224FF4800137
:1021C8002046FFF712FF0028DDD00320E1E768B3BF
:1021D80010B50446436F03B324236367226813686A
:1021E80023F0010313602046FFF7AEFD012813D04A
:1021F800636ABBB92268536823F49043536022682A
:10220800936823F02A0393602268136843F001035C
:1022180013602046FFF7A5FF10BD80F87030FEF769
:10222800F5F9D9E72046FFF77BFEE3E70120704781
:10223800054BD3F8882042F47002C3F888204FF089
:1022480000629A60704700BF00ED00E070B110B501
:102258000446037933B1022323710020206101234E
:10226800237110BD4371FEF775F9F4E7012070473B
:1022780010B483B0002401940068019019B9019941
:102288000A4408320192019A1360002003B05DF8F5
:10229800044B70474379012B1CD010B401234371C0
:1022A80002220271046822688B401343236002688B
:1022B800136803F03C033C2B07D001230371002370
:1022C800437118465DF8044B7047536843F00103A7
:1022D8005360F2E7022070474379012B1FD070B496
:1022E80001254571022303710668336840F6FE74C0
:1022F800944023EA04040B6849680B439340234342
:10230800336004682368C02101FA02F223EA02025A
:102318002260057100234371184670BC7047022083
:1023280070470000002863D010B582B0044690F8CA
:102338003230DBB2052B5DD090F83230DBB2022BA5
:102348005AD090F832302D4B9A6942F001029A61C6
:102358009B6903F001030193019B90F832300BB99C
:1023680080F831302046FEF727F96368402B1ED0ED
:10237800602B1CD021680868214A0240A0680343EA
:10238800E06803432069034360690343A06903438A
:10239800E0690343206A0343606A0343A06A43EA8F
:1023A800C043E06A43EA006313430B6017E0216807
:1023B8000868134A0240E068034320690343A069A0
:1023C8000343E0690343206A0343606A0343A06A46
:1023D80043EAC043E06A43EA006313430B6094F89E
:1023E800323013B9012384F83230002002B010BD16
:1023F800012070470120F9E70120F7E700100240AB
:10240800113800E0DFF834D0002103E00C4B5B58B2
:10241800435004310B480C4B42189A42F6D30B4AEE
:1024280002E0002342F8043B094B9A42F9D3FFF734
:10243800FFFE00F011F8FDF7D3FFFEE70040002093
:1024480028250008000000200C0000200C000020B7
:1024580044010020FEE7000070B50D4D0D4C641BD3
:10246800A4100026A64209D10B4D0C4C00F020F810
:10247800641BA4100026A64205D170BD55F8043B84
:1024880098470136EEE755F8043B98470136F2E7DE
:1024980020250008202500082025000824250008FC
:1024A80002440346934200D1704703F8011BF9E741
:1024B800F8B500BFF8BC08BC9E467047F8B500BF29
:0824C800F8BC08BC9E467047F9
:1024D00053657474696E672075702E2E2E2E000061
:1024E000446F6E652E00000002030405060708090C
:1024F0000A0B0C0D0E0F101001020304050607084D
:10250000090A0B0C0D0E0F10000000000000000067
:102510000102030406070809000000000102030489
:04252000AD01000801
:042524008901000821
:0C252800010000001000000000127A000A
:040000050800240DBE
:00000001FF
