:020000040800F2
:1000000000000120112D0008290700082B07000817
:100010002D0700082F070008310700080000000026
:10002000000000000000000000000000330700088E
:1000300035070008000000003707000839070008EE
:10004000612D0008612D0008612D0008612D000858
:10005000612D0008612D0008612D0008612D000848
:10006000612D0008612D0008612D0008612D000838
:10007000612D0008612D0008612D0008612D000828
:10008000612D0008612D000841070008612D00085E
:10009000612D0008612D0008612D0008612D000808
:1000A000612D0008612D0008612D0008612D0008F8
:1000B000612D00080000000000000000612D000814
:1000C000612D00080000000000000000612D000804
:1000D00000000000612D0008612D000800000000F4
:1000E000612D0008612D00080000000000000000E4
:1000F0000000000000000000000000000000000000
:10010000000000000000000000000000612D000859
:100110000000000000000000612D0008612D0008B3
:10012000612D0008612D0008612D0008612D000877
:10013000612D000800000000000000000000000029
:10014000612D0008612D0008612D0008612D000857
:10015000612D0008612D0008612D0008612D000847
:10016000612D0008612D0008612D000800000000CD
:10017000612D0008612D0008000000000000000053
:10018000612D0008612D0008612D000800000000AD
:1001900010B5054C237833B9044B13B10448AFF3C1
:1001A00000800123237010BD10000020000000001B
:1001B000BC2D000808B5034B1BB103490348AFF33E
:1001C000008008BD0000000014000020BC2D0008C5
:1001D000034613F8012B002AFBD1181A0138704787
:1001E00053B94AB9002908BF00281CBF4FF0FF319E
:1001F0004FF0FF3000F06EB9ADF1080C6DE904CEA0
:1002000000F006F8DDF804E0DDE9022304B07047F1
:100210002DE9F047089D04468C46002B40F0838072
:100220008A42174647D9B2FA82F242B1C2F120009F
:1002300024FA00F09140974040EA010C94404FEAC4
:100240001748230CBCFBF8F61FFA87FE08FB16C103
:1002500043EA014306FB0EF1994209D9FB1806F166
:10026000FF3080F01981994240F21681023E3B44F2
:100270005B1AA4B2B3FBF8F008FB103344EA034462
:1002800000FB0EFEA64509D93C1900F1FF3380F0B2
:100290000581A64540F2028102383C4440EA06400E
:1002A000A4EB0E0400261DB1D4400023C5E9004391
:1002B0003146BDE8F08702B9FFDEB2FA82F2002AC9
:1002C00050D1CB1B4FEA174E1FFA87F80126B3FB1C
:1002D000FEFC210C0EFB1C3341EA034108FB0CF32E
:1002E0008B4207D979180CF1FF3002D28B4200F211
:1002F000E9808446C91AA3B2B1FBFEF00EFB1011CF
:1003000043EA014408FB00F8A04507D93C1900F175
:10031000FF3302D2A04500F2D9801846A4EB0804AE
:1003200040EA0C40BFE78B4209D9002D00F0B180B4
:100330000026C5E9000130463146BDE8F087B3FA32
:1003400083F6002E4AD18B4202D3824200F2B8805B
:10035000841A61EB030101208C46002DA8D0C5E969
:10036000004CA5E7C2F1200320FA03F6974001FAFA
:1003700002F04FEA174ED9403043030CB1FBFEF6B2
:100380001FFA87F80EFB161143EA014306FB08F13A
:10039000994204FA02F409D9FB1806F1FF3C80F0F7
:1003A0008D80994240F28A80023E3B445B1A81B2C2
:1003B000B3FBFEF00EFB103341EA034100FB08F3F0
:1003C0008B4207D9791800F1FF3C73D28B4271D967
:1003D00002383944CB1A40EA064678E7C6F1200CC9
:1003E00003FA06F422FA0CF31C4320FA0CF701FA84
:1003F00006F34FEA144E21FA0CF11F433B0CB1FBFC
:10040000FEF91FFA84F80EFB191143EA014109FBBA
:1004100008FA8A4502FA06F200FA06F308D96118CA
:1004200009F1FF3048D28A4546D9A9F10209214491
:10043000A1EB0A01BFB2B1FBFEF00EFB101147EABF
:10044000014700FB08F8B84507D9E71900F1FF316B
:100450002ED2B8452CD90238274440EA0940A7EBF0
:100460000807A0FB02894F45C64649461AD317D054
:100470005DB1B3EB0E0267EB010707FA0CFCF2402B
:100480004CEA0202F740C5E9002700263146BDE8E4
:10049000F0872E4628460BE70646E9E61846FDE6B5
:1004A0004345E5D2B8EB020E69EB04010138DFE702
:1004B0000846D2E760468DE78146B9E7664675E7AC
:1004C00030464AE7ACF1020C394413E702383C44A9
:1004D00024E700BF704700BF30B589B00024039403
:1004E0000494059406940794114BDA6C42F00102CF
:1004F000DA64DA6C02F001020192019ADA6C42F0DD
:100500000202DA64DB6C03F002030293029B094DE2
:1005100022460121284601F007FA012303930493A0
:100520000594069403A9284601F03EF909B030BDB0
:10053000001002400004004808B50948094B036058
:100540004FF4E133436000238360C36003610C22F6
:1005500042618361C3610362436201F0C6FD08BD6D
:10056000AC0000200044004010B58AB024220021D5
:1005700001A802F01BFC094C094B2360204601F046
:10058000E5FD00220192029203920492059201A9D4
:10059000204601F034FE0AB010BD00BF2C00002040
:1005A0000074004070B586B0002500950195029555
:1005B000039504950595184C184B23604FF4803330
:1005C0006360A560E56025610826666125760123E4
:1005D0006376E36184F820506362A562E56284F883
:1005E0003050656384F83850204601F0A3FE0C4B70
:1005F00000930623019302957F230393042304931E
:1006000005956946204602F0A1F86661204601F092
:1006100091FE06B070BD00BF4400002000000450F1
:100620000004002A30B583B004460D460846FFF7A3
:10063000CFFD0A2382B22946204601F0B5FC40F6E0
:100640000D23ADF804300A23022201A9204601F04F
:10065000ABFC03B030BD70B5ACB0402200211CA88B
:1006600002F0A4FB002416941794189419941A9479
:100670005422214601A802F099FB10261B96012561
:100680002195602323931BA800F04CFA0F231693A7
:100690001794189419941A94214616A800F082FD14
:1006A00044F2020301930A944FF08053139302958E
:1006B00003950496072305930223069307934FF0AF
:1006C0008073089301A800F0FBFE4FF4007001F066
:1006D00039F92CB070BD000008B500F04BF9FFF7F8
:1006E000BAFFFFF7F9FEFFF727FFFFF73DFFFFF720
:1006F00059FF084C08492046FFF794FF002107489E
:1007000001F036FD064802F085FA06492046FFF75B
:1007100089FFFEE7AC000020D82D00082C00002047
:1007200044000020E82D00087047FEE7FEE7FEE7E2
:10073000FEE770477047704708B500F02BF908BD19
:1007400008B5024801F0E7FE08BD00BF44000020E4
:1007500010B50D4801F0DAFE03460C4A1060002285
:1007600011460B4801F034FD0A4C227801210A4859
:1007700001F0DAF823681BB10022064B1A6010BDA5
:1007800040F6FF72F9E700BF44000020A8000020F7
:100790002C000020400000200004004882B00A4BDA
:1007A0001A6E42F001021A661A6E02F001020092FD
:1007B000009A9A6D42F080529A659B6D03F08053C7
:1007C0000193019B02B070470010024010B588B041
:1007D0000023039304930593069307930268174B32
:1007E0009A4201D008B010BD03F17043A3F5F8336D
:1007F000DA6C42F40052DA64DA6C02F400520192CC
:10080000019ADA6C42F00102DA64DB6C03F0010356
:100810000293029B202303930B230493002405944B
:1008200003A94FF0904000F0BFFF2246214612205E
:1008300001F0E2F8122001F013F9D3E700000450B0
:1008400000B589B00023039304930593069307939F
:100850000268134B9A4202D009B05DF804FB03F51D
:10086000CE339A6D42F000529A659A6D02F00052B2
:100870000192019ADA6C42F00102DA64DB6C03F057
:1008800001030293029B1023039303230493002389
:10089000059303A94FF0904000F086FFDCE700BF0E
:1008A0000074004070B588B000230393049305934F
:1008B0000693079302681A4B9A4201D008B070BDA4
:1008C00003F5E6339A6D42F400329A659A6D02F4AC
:1008D00000320192019ADA6C42F00102DA64DB6CB8
:1008E00003F001030293029B042303930226049660
:1008F00000250595032406940723079303A94FF0C9
:10090000904000F051FF4FF4004303930496059587
:100910000694079403A94FF0904000F045FFCDE7FF
:1009200000440040104B1B680BB90120704710B504
:1009300004464FF47A70B0FBF3F30C4A1068B0FB36
:10094000F3F001F09BF868B90F2C01D901200AE0FF
:10095000002221464FF0FF3001F04EF8044B1C609E
:10096000002000E0012010BD000000200800002051
:100970000400002010B5032001F02CF80020FFF740
:10098000D1FF10B10124204610BD0446FFF706FF39
:10099000F9E70000034A1368034909680B44136030
:1009A000704700BF3001002000000020014B186894
:1009B000704700BF3001002038B50446FFF7F6FF4E
:1009C0000546B4F1FF3F02D0044B1B681C44FFF7FF
:1009D000EDFF401BA042FAD338BD00BF000000204D
:1009E00030B583B00446204B9B6D13F0805F0BD075
:1009F00000F0A0FFB0F5007F17D0802C1FD82DD0BD
:100A0000702C2DD000211BE0174DAB6D43F08053AF
:100A1000AB65AB6D03F080530193019B00F08AFF3F
:100A2000AB6D23F08053AB65E4E7802C03D9A02C99
:100A300003D9022104E0002102E0012100E00321AA
:100A40000A4A136823F007030B431360136803F08B
:100A500007038B4206D1002003B030BD0221EFE72F
:100A60000121EDE70120F7E70010024000200240DD
:100A7000284A9368D26802F0030213F00C030AD0EC
:100A80000C2B06D0042B1FD0082B20D000200246B0
:100A900010E0012AF6D11F4A126812F0080F0CD19B
:100AA0001C4AD2F89420C2F303221B4951F8222099
:100AB00043B100200C2B0DD07047164A1268C2F3C8
:100AC0000312F2E71046F5E714480022F2E7144853
:100AD0000022EFE70F4BDB6803F00303022B16D075
:100AE000032B00D10E4A0B4BD868C0F30210013023
:100AF000D968C1F3062102FB01F2B2FBF0F2D8681B
:100B0000C0F3416001304000B2FBF0F0D4E7034A8B
:100B1000E9E700BF00100240082E00080024F4009E
:100B200000127A00002800F02783F0B583B0044655
:100B3000AE4B9D6805F00C05DE6806F00306036801
:100B400013F0100F5AD0E5B10C2D18D0A369002B6B
:100B500000F0BB80A54A136843F001031360FFF760
:100B600025FF0746A14B1B6813F0020F40F09A8047
:100B7000FFF71CFFC01B0228F4D9032007E3012E56
:100B8000E4D19A4B1B6813F0020F03D0A369002B2A
:100B900000F0F482206A954B1B6813F0080F5BD0BD
:100BA000924B1B6803F0F00398425CD88F4B1A6895
:100BB00042F008021A601A6822F0F002216A0A4321
:100BC0001A605A6822F47F42E16942EA01225A60BF
:100BD000002D60D0FFF74CFF844B9B68C3F30313D9
:100BE000834AD35C03F01F03D840824B1860824BCA
:100BF0001868FFF797FE002840F0C982236813F0B9
:100C0000010F00F08180082D75D00C2D71D0636824
:100C1000B3F5803F00F09780B3F5A02F00F09980E6
:100C2000724B1A6822F480321A601A6822F4802209
:100C30001A606368002B00F09980FFF7B7FE074643
:100C40006A4B1B6813F4003F5ED1FFF7AFFEC01B79
:100C50006428F5D903209AE2644BD3F894301B0939
:100C600003F0F003A0E7FFF7BBFE002840F0888206
:100C70005E4B1A6842F008021A601A6822F0F0020D
:100C8000216A0A431A605A6822F47F42E16942EA03
:100C900001225A609EE7206AFFF7A2FE002899D041
:100CA000012074E2514B1A6842F008021A601A6877
:100CB00022F0F002216A0A431A605A6822F47F4245
:100CC000E16942EA01225A6098E7484A136823F032
:100CD00001031360FFF76AFE0746444B1B6813F0DD
:100CE000020F8BD0FFF762FEC01B0228F5D903204C
:100CF0004DE2032E8BD13D4B1B6813F4003F03D014
:100D00006368002B00F03E82236813F0020F4FD07F
:100D1000042D3CD00C2D38D0E368002B77D0334A1B
:100D2000136843F480731360FFF740FE06462F4BB1
:100D30001B6813F4806F61D1FFF738FE801B022817
:100D4000F5D9032023E2294A136843F48033136062
:100D50006FE703F18043A3F53C331A6842F4802225
:100D60001A601A6842F480321A6062E7FFF71EFECA
:100D700007461E4B1B6813F4003FC5D0FFF716FE55
:100D8000C01B6428F5D9032001E2022EC4D1174B01
:100D90001B6813F4806F03D0E368002B00F0F4812C
:100DA000124A536823F0F853216943EA0163536000
:100DB000236813F0080F55D06369002B3BD00B4A12
:100DC000D2F8943043F00103C2F89430FFF7EEFDFF
:100DD0000646064BD3F8943013F0020F42D1FFF7CA
:100DE000E5FD801B0228F4D90320D0E10010024069
:100DF000F02D00080800002004000020B44A5368C9
:100E000023F0F853216943EA01635360D0E7B04A05
:100E1000136823F480731360FFF7C8FD0646AC4BDC
:100E20001B6813F4806FC3D0FFF7C0FD801B02283E
:100E3000F5D90320ABE1A64AD2F8943023F00103A0
:100E4000C2F89430FFF7B2FD0646A14BD3F89430B8
:100E500013F0020F06D0FFF7A9FD801B0228F4D97A
:100E6000032094E1236813F0040F7AD0984B9B6D14
:100E700013F0805F36D1964B9A6D42F080529A659E
:100E80009B6D03F080530193019B0126914B1B68DE
:100E900013F4807F28D0A368012B39D0052B3FD0D5
:100EA0008B4BD3F8902022F00102C3F89020D3F8A6
:100EB000902022F00402C3F89020A368002B3DD0BC
:100EC000FFF774FD0746824BD3F8903013F0020F02
:100ED00046D1FFF76BFDC01B41F288339842F2D92F
:100EE000032054E10026D1E77A4A136843F4807363
:100EF0001360FFF75BFD0746764B1B6813F4807F9A
:100F0000C9D1FFF753FDC01B0228F5D903203EE1EC
:100F10006F4AD2F8903043F00103C2F89030CCE72A
:100F20006B4BD3F8902042F00402C3F89020D3F822
:100F3000902042F00102C3F89020BEE7FFF736FD93
:100F40000746634BD3F8903013F0020F08D0FFF739
:100F50002DFDC01B41F288339842F2D9032016E1DF
:100F6000E6B9236813F0200F35D0636AE3B1584A1D
:100F7000D2F8983043F00103C2F89830FFF716FD1D
:100F80000646534BD3F8983013F0020F23D1FFF7E6
:100F90000DFD801B0228F4D90320F8E04C4A936D24
:100FA00023F080539365DCE7494AD2F8983023F068
:100FB0000103C2F89830FFF7F9FC0646444BD3F81A
:100FC000983013F0020F06D0FFF7F0FC801B0228C8
:100FD000F4D90320DBE0A36A002B00F0D780022BBA
:100FE00027D00C2D00F0D780394B1A6822F0807280
:100FF0001A601B6813F0006F04D1354AD36823F0E0
:101000000303D360324AD36823F0887323F4803318
:10101000D360FFF7CBFC04462D4B1B6813F0007F19
:1010200000F0A880FFF7C2FC001B0228F4D90320BF
:10103000ADE0274BDB6803F00301E26A914209D07F
:101040000C2D00F0A680224B1B6813F0806F2BD074
:1010500001209CE003F07002216B0139B2EB011F0B
:10106000EED103F4FE42616BB2EB012FE8D103F045
:101070007842A16BB2EBC16FE2D103F4C001E26B25
:101080005208013AB1EB425FDAD103F0C063226C3F
:101090005208013AB3EB426FD2D10D4B1B6813F0EB
:1010A000007F4DD0002072E0094A136823F080735E
:1010B0001360FFF77BFC0546054B1B6813F0007FB0
:1010C0000AD0FFF773FC401B0228F5D903205EE02D
:1010D0000010024000700040304AD3683049194087
:1010E000E36A206B013843EA0013606B43EA002394
:1010F000E06B4008013843EA4053206C4008013857
:1011000043EA4063A06B43EAC0630B43D3601368B8
:1011100043F080731360D36843F08073D360FFF7AC
:1011200045FC04461D4B1B6813F0007F06D1FFF7FA
:101130003DFC001B0228F5D9032028E0002026E012
:10114000164B1A6842F080721A60DA6842F08072B8
:10115000DA60FFF72BFC0446104B1B6813F0007F8E
:1011600006D1FFF723FC031B022BF5D903200EE069
:1011700000200CE000200AE001207047012006E07A
:10118000012004E0012002E0012000E0002003B083
:10119000F0BD0120FBE70120F9E700BF001002408D
:1011A0008C809D01002800F0988070B50C460546A3
:1011B0004E4B1B6803F007038B420BD24B4A13685C
:1011C00023F007030B431360136803F007038B42FC
:1011D00040F085802B6813F0010F39D06B68032B2A
:1011E00009D0022B26D063BB414A126812F0020FCD
:1011F00006D1012070E03E4A126812F0007F70D0E4
:101200003B498A6822F0030213438B60FFF7CEFB51
:101210000646374B9B6803F00C036A68B3EB820FFA
:1012200016D0FFF7C3FB801B41F288339842F0D9F8
:10123000032051E02E4A126812F4003FE0D1012051
:101240004AE02B4A126812F4806FD9D1012043E0A2
:101250002B6813F0020F06D0254A936823F0F003A1
:10126000A9680B439360214B1B6803F00703A3425B
:101270000AD91E4A136823F0070323431360136837
:1012800003F00703A3422ED12B6813F0040F06D0FE
:10129000174A936823F4E063E9680B4393602B6873
:1012A00013F0080F07D0124A936823F4605329699A
:1012B00043EAC1039360FFF7DBFB0D4B9B68C3F36D
:1012C00003130C4AD35C03F01F03D8400A4B186089
:1012D0000A4B1868FFF726FB70BD012070470120FC
:1012E000FAE70120F8E70120F6E700BF00200240FE
:1012F00000100240F02D000808000020040000202B
:10130000014B1868704700BF0800002008B5FFF7C0
:10131000F7FF054B9B68C3F30223044AD35C03F039
:101320001F03D84008BD00BF00100240002E000877
:1013300008B5FFF7E5FF054B9B68C3F3C223044ADA
:10134000D35C03F01F03D84008BD00BF001002406B
:10135000002E0008F8B504460F46584BDB6813F022
:10136000030F18D0554BDB6803F003030268934268
:1013700002D001252846F8BD002A00F09D804F4B81
:10138000DB68C3F3021301334268934201D00125A5
:10139000F0E7002509E00368022B56D0032B5BD051
:1013A000012B41D00125002DE4D1444A136823F0DC
:1013B00080631360FFF7FAFA0646404B1B6813F090
:1013C000006F05D0FFF7F2FA831B022BF5D9032536
:1013D000002DCFD1002F4DD138490B6923F0784330
:1013E00023F4FE43A068E268D20642EA00221343D7
:1013F0000B61324A136843F080631360FFF7D6FA3B
:1014000006462E4B1B6813F0006F05D1FFF7CEFA8E
:10141000831B022BF5D90325002DABD1274A136975
:10142000A1690B431361A5E7244A126812F0020F69
:101430001ED02248C26822F073026168013943EA73
:1014400001131343C3600025ADE71C4A126812F470
:10145000806FEED10125A6E7184A126812F4003F0A
:10146000E7D1164A126812F4802FE2D101259AE7DB
:10147000012598E7012F0FD01048026922F0C062C1
:1014800022F4FE42A16863695B08013B5B0643EA04
:10149000012313430361ACE70848026922F4C00248
:1014A00022F4FE42A16823695B08013B5B0543EA25
:1014B0000123134303619CE701255BE70010024011
:1014C0002DE9F04182B00446036813F4006F25D083
:1014D000C36BB3F5000F06D0B3F5400F12D04BB17C
:1014E000012637461CE0AE4AD36843F48033D3600C
:1014F000002708E000210430FFF72CFF074610B159
:1015000006460DE00027A64AD2F8883023F44003AF
:10151000E16B0B43C2F88830002601E00026374615
:10152000236813F4003F6BD09D4B9B6D13F0805FDD
:101530004CD19B4B9A6D42F080529A659B6D03F0A3
:1015400080530193019B4FF00108964A136843F4BE
:1015500080731360FFF72AFA0546924B1B6813F459
:10156000807F05D1FFF722FA401B0228F5D9032717
:10157000002F40D18A4BD3F8903013F4407315D02C
:10158000226D9A4212D0864AD2F8903023F44073EA
:10159000D2F8901041F48031C2F89010D2F8901037
:1015A00021F48031C2F89010C2F8903013F0010F8E
:1015B0000FD1002F40F0C980794AD2F8903023F43F
:1015C0004073216D0B43C2F8903015E04FF00008D6
:1015D000BBE7FFF7EBF90546714BD3F8903013F0FA
:1015E000020FE6D1FFF7E2F9401B41F2883398423F
:1015F000F2D90327DDE73E46B8F1000F40F0A7809F
:10160000236813F0010F08D0654AD2F8883023F020
:101610000303216A0B43C2F88830236813F0020FDA
:1016200008D05F4AD2F8883023F00C03616A0B437C
:10163000C2F88830236813F0200F08D0584AD2F837
:10164000883023F44063A16A0B43C2F888302368D2
:1016500013F4007F08D0524AD2F8883023F4402394
:10166000616B0B43C2F88830236813F4806F08D095
:101670004B4AD2F8883023F44013A16B0B43C2F8D5
:101680008830236813F0400F08D0454AD2F88830DC
:1016900023F44053E16A0B43C2F88830236813F403
:1016A000807F08D03E4AD2F8883023F44033216B43
:1016B0000B43C2F88830236813F4005F0FD0384A18
:1016C000D2F8883023F04063216C0B43C2F8883095
:1016D000236CB3F1006F40D0B3F1806F42D0236828
:1016E00013F4802F0FD02E4AD2F8883023F04063B5
:1016F000616C0B43C2F88830636CB3F1006F39D072
:10170000B3F1806F3BD0236813F4804F0CD0244A90
:10171000D2F8883023F04053A16C0B43C2F88830D4
:10172000A36CB3F1805F32D0236813F4004F08D06C
:101730001B4AD2F8883023F08043E16C0B43C2F897
:101740008830304602B0BDE8F0813E4654E7144A86
:10175000936D23F08053936552E7D36843F480136D
:10176000D360BCE70121201DFFF7F4FD0028B6D0AF
:101770000646B4E7D36843F48013D360C3E701217E
:10178000201DFFF7E7FD0028BDD00646BBE702217C
:10179000201DFFF7DFFD0028C6D00646C4E700BFC6
:1017A0000010024000700040F0B583B0002397E0C5
:1017B00086685F000325BD4026EA0506CD68BD406A
:1017C00035438560466826EA04064D68C5F3001473
:1017D0009C4034434460C7685E000325B540EC4339
:1017E00027EA05078D68B5403D43C5604D68022D69
:1017F00001D0122D13D1DF08083750F827E003F08D
:1018000007054FEA850C0F2505FA0CF52EEA050EA3
:101810000D6905FA0CF545EA0E0540F827500568F4
:1018200025404C6804F00304B4402C4304604C6829
:1018300014F0805F53D0384C256E45F001052566C5
:10184000246E04F001040194019C9D08AE1C334CED
:1018500054F8267003F00304A6000F24B44027EACE
:101860000407B0F1904F51D02D4CA04250D004F558
:101870008064A04248D00724B4403C430235274E40
:1018800046F82540274C2568D44325EA02064F68D0
:1018900017F4803F01D042EA0506224D2E606D68A4
:1018A00004EA05064F6817F4003F01D042EA050636
:1018B0001C4D6E60AD6804EA05064F6817F4801F82
:1018C00001D042EA0506174DAE60ED682C404E6827
:1018D00016F4001F01D042EA0504124AD460013315
:1018E0000A6832FA03F415D001249C402240F6D055
:1018F0004D686E1E012E7FF65BAF112D3FF458AF81
:10190000122D7FF468AF53E70224B5E70024B3E754
:101910000124B1E703B0F0BD001002400000014017
:1019200000040048000401400AB1816170478162EF
:1019300070470000024B186800F4C060704700BF99
:1019400000700040B0F5007F0FD01F4B1B6803F400
:10195000C063B3F5806F34D01B4A136823F4C063AF
:1019600043F48063136000207047174B1B6803F437
:10197000C063B3F5007F20D0134A136823F4C0631B
:1019800043F400731360114B1A68322303FB02F314
:101990000F4AA2FB03239B0C013300E0013B0A4AE0
:1019A000526912F4806F01D0002BF7D1064B5B69AE
:1019B00013F4806F03D1002070470020704703208C
:1019C00070470020704700BF0070004008000020F2
:1019D00083DE1B43074AD36823F4E0631B041B0C1C
:1019E000000200F4E060034343F0BF6343F40033BC
:1019F000D360704700ED00E030B4174BDB68C3F3F1
:101A00000223C3F10704042C28BF04241D1D062D46
:101A100018D9033B4FF0FF3505FA04F421EA04011D
:101A2000994005FA03F322EA0303194300280BDB6C
:101A30000901C9B200F1604000F5614080F800136F
:101A400030BC70470023E5E700F00F000901C9B280
:101A5000024B1954F4E700BF00ED00E014ED00E084
:101A6000002807DB00F01F02400901239340024ACF
:101A700042F82030704700BF00E100E00138B0F1CB
:101A8000807F0AD2064B5860064AF02182F8231064
:101A90000020986007221A6070470120704700BF3D
:101AA00010E000E000ED00E00F49D1F8883043F489
:101AB0007003C1F888300D4B1A6842F001021A60B9
:101AC000002098601A6822F0A85222F410221A60AE
:101AD0004FF48052DA601A6822F480221A6098610A
:101AE0004FF000638B60704700ED00E00010024093
:101AF000F8B50446016883680269134342691343D9
:101B0000C269134308689F4A024013430B6022686E
:101B1000536823F44053E1680B435360A169226882
:101B2000994B9A4201D0236A1943936823F4306396
:101B30000B4393602368954A93421CD0944A934286
:101B40002DD0914A934243D010258F4A934260D0C2
:101B5000E369B3F5004F00F0C680082D00F25D8107
:101B6000DFE815F01E0133013D015B0148015B0117
:101B70005B015B01520102F55842D2F8882002F065
:101B80000302032A09D8DFE802F00204380601251F
:101B9000DBE70425D9E70825D7E71025D5E702F5C7
:101BA000E632D2F8882002F00C020C2A0ED8DFE8C8
:101BB00002F0070D0D0D090D0D0D260D0D0D0B007D
:101BC0000025C2E70425C0E70825BEE71025BCE7CD
:101BD00002F5C832D2F8882002F44062B2F5006FF4
:101BE0000FD005D87AB1B2F5806F0ED10425ACE7DD
:101BF000B2F5406F0BD10825A7E70225A5E702251E
:101C0000A3E70225A1E700259FE710259DE7102502
:101C10009BE7082D00F20481DFE815F00C000201BB
:101C200027000201240002010201020109004FF411
:101C3000004004E0FFF76AFB002800F0F3806268D0
:101C400002EB4203834200F2EF80B0EB023F00F26E
:101C5000ED80082D44D8DFE805F00A431F432A43EE
:101C600043433800FEF704FFE6E74A48E7E7FFF79B
:101C70004DFB0023070E060262685008301847F13A
:101C80000001FEF7ADFAA0F54072434B9A4200F214
:101C9000CF802368D86093E0560800252B463F4844
:101CA0000021801941F10001FEF79AFAEBE7FEF7F7
:101CB000DFFE0025070E0602626850082B4630182A
:101CC00047F10001FEF78CFADDE7500800252B46AE
:101CD00010F500002CBF01210021FEF781FAD2E7A8
:101CE00001250020CFE7082D49D8DFE805F0051EC3
:101CF0002948344848483F00FFF708FB626853080A
:101D000003EB4003B3FBF2F39BB2A3F110014FF6D8
:101D1000EF72914200F28E809AB222F00F02C3F36A
:101D2000420313432268D3604AE0FFF701FB626875
:101D3000530803EB4003B3FBF2F39BB20025E4E747
:101D40006268530803F1F47303F59043B3FBF2F3B5
:101D50009BB20025D9E7FEF78BFE6268530803EBC0
:101D60004003B3FBF2F39BB20025CEE76268530851
:101D700003F58033B3FBF2F39BB20025C5E70125E1
:101D80000023C2E7F369FFEF008000400038014004
:101D9000004400400024F400FFFC0F00000024F485
:101DA000FFF7B4FA626800EB5203B3FBF2F39BB2A5
:101DB000A3F110014FF6EF7291423DD82268D36033
:101DC0000023236663662846F8BDFFF7B1FA626810
:101DD00000EB5203B3FBF2F39BB20025E8E7626825
:101DE000530803F5740303F51053B3FBF2F39BB2EE
:101DF0000025DDE7FEF73CFE626800EB5203B3FB13
:101E0000F2F39BB20025D3E76268530803F5004361
:101E1000B3FBF2F39BB20025CAE701250023C7E715
:101E20000125CDE70025CBE70125C9E70125C7E757
:101E30000125C5E70125C3E70125C1E7436A13F082
:101E4000010F06D00268536823F40033816A0B4304
:101E50005360436A13F0020F06D00268536823F4FC
:101E60008033C16A0B435360436A13F0040F06D0FA
:101E70000268536823F48023016B0B435360436A69
:101E800013F0080F06D00268536823F40043416B37
:101E90000B435360436A13F0100F06D00268936837
:101EA00023F48053816B0B439360436A13F0200F3C
:101EB00006D00268936823F40053C16B0B43936010
:101EC000436A13F0400F0AD00268536823F480136A
:101ED000016C0B435360036CB3F5801F0BD0436A56
:101EE00013F0800F06D00268536823F40023816C3E
:101EF0000B43536070470268536823F4C003416C7E
:101F00000B435360EBE72DE9F84305460F461646B1
:101F10009946DDF820802C68E46937EA04030CBF99
:101F200001240024B4423CD1B8F1FF3FF3D0FEF7C6
:101F30003DFDA0EB0900404521D8B8F1000F1ED0AF
:101F40002B681A6812F0040FE5D0DA6912F4006FFA
:101F5000E1D04FF400621A622A68136823F4D07348
:101F600013602A68936823F00103936020236B6752
:101F7000AB67EB67002385F87030032012E02A6816
:101F8000136823F4D07313602A68936823F0010365
:101F9000936020236B67AB67002385F870300320C4
:101FA00000E00020BDE8F8832DE9F04182B01E4634
:101FB000436F202B55D104460D469046002954D03E
:101FC000002A54D090F87030012B52D0012380F8B1
:101FD00070300023C36721234367FEF7E7FC074601
:101FE000A4F85080A4F85280A368B3F5805F05D0B0
:101FF0004FF00008002384F8703014E0236913B117
:102000004FF00008F6E7A8460025F3E738F8023B52
:102010002268C3F308031385B4F8522092B2013A40
:1020200092B2A4F85220B4F852309BB273B1009629
:102030003B46002280212046FFF765FFD8B9002DDE
:10204000E4D0236815F8012B1A85E5E700963B4696
:10205000002240212046FFF756FF70B92023636716
:1020600000E0022002B0BDE8F0810120FAE7012083
:10207000F8E70220F6E70320F4E70320F2E730B5A3
:1020800083B004460023C367FEF790FC054623682F
:102090001B6813F0080F0CD123681B6813F0040FA2
:1020A00015D120236367A367002084F8700003B074
:1020B00030BD6FF07E430093034600224FF40011C1
:1020C0002046FFF720FF0028E6D00320EFE76FF05F
:1020D0007E4300932B4600224FF480012046FFF7F9
:1020E00012FF0028DDD00320E1E768B310B50446F5
:1020F000436F03B3242363672268136823F001034B
:1021000013602046FFF7F4FC012813D0636ABBB9C3
:102110002268536823F4904353602268936823F045
:102120002A0393602268136843F00103136020467A
:10213000FFF7A5FF10BD80F87030FEF7B3FBD9E7BD
:102140002046FFF77BFEE3E70120704770B110B532
:102150000446037933B10223237100202061012357
:10216000237110BD4371FEF76BFBF4E7012070474C
:102170004379012B2AD030B401234371022202712A
:102180000468226801F01005AB401343236089B94D
:102190000268136803F03C03042B06D0012303718B
:1021A00000234371184630BC7047536843F0010365
:1021B0005360F3E70268136803F47013B3F5802FDC
:1021C000ECD1536843F002035360E7E70220704705
:1021D00010B483B0002401940068019051B90199B2
:1021E0000A4408320192019A1360002003B05DF89E
:1021F000044B704701990A4414320192F3E7F8B591
:102200004379012B00F0948004460D4616460123C5
:102210004371022303710B68042B32D02B69012B0D
:1022200079D02068C36B06F010020721914023EAA1
:1022300001012B68AE683343EE68334393400B4390
:10224000C363206803684FF48041914023EA01038F
:1022500003602068036840F6FC71914023EA0101A5
:102260006B6893400B43036020680368C02101FA48
:1022700002F223EA0202026001232371002060714E
:10228000F8BD72B123685B6B002B25DAFEF78EFB7D
:102290000128F7D9236943F0080323610320207143
:1022A000EEE7FEF783FB074623685B6B13F4004FF2
:1022B0000BD0FEF77BFBC01B0128F5D9236943F047
:1022C0000803236103202071DAE70120FEF774FB85
:1022D0002368AA691A6405E00120FEF76DFB2368F4
:1022E000AA695A642068826C06F0100140F2FF333C
:1022F0008B4022EA0302EB698B401A438264206818
:10230000C36CFF228A4023EA02032A6A02FA01F11F
:102310000B43C36482E721688A6B06F010001F2319
:10232000834022EA03026B69834013438B6378E79F
:102330000220A5E730B583B000230193002800F008
:10234000D8800446436D03B323689A6812F0005F97
:1023500005D09A6822F0204222F03F029A6022685B
:10236000936813F0805F1DD1936823F0104323F02E
:102370003F0343F0805393605F4B1B689B095F4AA8
:10238000A2FB03239B09019309E0FEF71FFA002338
:10239000A36584F85030D7E7019B013B0193019B73
:1023A000002BF9D12268936813F0805F09D1636D27
:1023B00043F010036365A36D43F00103A36501209F
:1023C00000E00020936813F0040300D00123616D46
:1023D00011F0100F40F08680002B40F08380636D79
:1023E00023F4817343F002036365936813F0010FD4
:1023F0000BD1434B9B6813F0010F06D16368414931
:102400008A6822F47C1213438B60627E636B43EA1A
:102410004233E2681343A268134394F8202043EA4E
:102420000243012A3ED0A26A22B102F47072E16A2C
:102430000A4313432168CD68334A2A401343CB60D3
:1024400021688B6813F0040300D001238A6812F01E
:10245000080200D00122B3B9AAB9227E94F8303024
:102460005B0043EA8232CB6823F4804323F002030B
:102470001343CB6094F83830012B18D022681369CD
:1024800023F0010313612369012B22D02268136B0F
:1024900023F00F031363636D23F0030343F0010381
:1024A000636524E0626A013A43EA4243BBE721687C
:1024B0000B6923F4FF6323F00403E26B256C2A43CA
:1024C000656C2A43A56C2A43134343F001030B6157
:1024D000D9E721680B6B23F00F03E269013A13433C
:1024E0000B63D8E7636D43F010036365012003B00D
:1024F00030BD0120FBE700BF08000020632D3E0532
:10250000000004500003045007C0F0FF0368186C7B
:1025100070477047704770B5044603681E685D6871
:1025200016F0020F10D015F0020F0DD0436D13F00E
:10253000100F03D1436D43F400634365204600F060
:10254000E5FB236802221A6016F0040F02D015F092
:10255000040F05D116F0080F3AD015F0080F37D048
:10256000636D13F0100F03D1636D43F40073636563
:102570002368DA6812F4406F24D1DA6812F4005F3D
:1025800020D11A6812F0080F1CD09A6812F0040FBC
:1025900010D15A6822F00C025A60636D23F48073E4
:1025A0006365636D13F4805F0CD1636D43F00103C9
:1025B000636507E0636D43F010036365A36D43F04B
:1025C0000103A3652046FEF7C3F823680C221A60B6
:1025D00016F0200F02D015F0200F05D116F0400F95
:1025E0004CD015F0400F49D0636D13F0100F03D19C
:1025F000636D43F4005363652368DA6C12F0C00F17
:102600002AD10121DA6812F4406F27D10120DA685B
:1026100031B912F0007F2BD150B312F4005F27D1F3
:10262000196811F0400F23D012F4001F20D19A68CE
:1026300012F0080F14D15A6822F060025A60636DDC
:1026400023F480536365636D13F4807F10D1636D51
:1026500043F0010363650BE00021D3E70020D6E7D8
:10266000636D43F010036365A36D43F00103A3653D
:10267000204600F047FB236860221A6016F0800FA6
:1026800002D015F0800F2DD116F4807F02D015F402
:10269000807F32D116F4007F02D015F4007F38D14C
:1026A00016F0100F17D015F0100F14D0636B23B174
:1026B0002368DB6813F0010F0AD0636D43F4806375
:1026C0006365A36D43F00203A3652046FFF722FF75
:1026D000236810221A6016F4806F02D015F4806F00
:1026E00023D170BD636D43F4803363652046FFF7EB
:1026F00010FF236880221A60C6E7636D43F400333D
:102700006365204600F000FB23684FF480721A6076
:10271000C0E7636D43F480236365204600F0F5FA5B
:1027200023684FF400721A60BAE7636D43F4804384
:102730006365A36D43F00803A36523684FF48062CB
:102740001A60204600F0DFFACBE70000F0B482B058
:102750000022019290F85020012A00F00C820346DA
:10276000012280F850200268926812F0040F0AD00B
:10277000426D42F0200242650120002283F8502081
:1027800002B0F0BC70474A68052A09D8023A032A09
:1027900000F28D80DFE802F0028184870C224A601B
:1027A0001E684D680C6830362A0A920002F00C024E
:1027B000B05805F01F051F27AF4020EA0700C4F3FB
:1027C0008464AC402043B0501C68A26812F004023C
:1027D00000D00122A06810F0080000D0012052BBF8
:1027E00048BB0E688D681434720E920002F0040229
:1027F000A058C6F304560727B74020EA0700B540A3
:102800002843A0504C691868C268C2F3C102520044
:1028100004FA02F20D69042D4CD00E68603050F8B5
:102820002570B44C3C4006F0F8463243144344F063
:10283000004440F825401868826812F0010F15D155
:102840000A68CD68D0F8B040C2F3120624EA060444
:1028500005F01806A84DF5402A40C2F312022243A3
:10286000C0F8B020C868A54A90427ED00A68A44942
:102870000A4200F07C81A349896801F0E074A24813
:10288000824200F01081A148824200F04981A048B4
:10289000824200F0598100206FE712224A607FE7F0
:1028A00018224A607CE74FF480724A6078E706227B
:1028B0004A6075E7026E046EC4F384640A68C2F36A
:1028C00012057DBBC2F38462944230D01C68626EF4
:1028D000606EC0F384600A68C2F3120565BBC2F380
:1028E000846290422DD01C68A26EA06EC0F38460FA
:1028F0000A68C2F312054DBBC2F3846290422AD02B
:102900001C68E26EE06EC0F384600A68C2F31205D0
:1029100035BBC2F3846290428DD1E26E22F0004258
:10292000E26688E792FAA2F2B2FA82F2CCE7026E8D
:1029300022F000420266C9E792FAA2F2B2FA82F2EB
:10294000CFE7626E22F000426266CCE792FAA2F212
:10295000B2FA82F2D2E7A26E22F00042A266CFE77C
:1029600092FAA2F2B2FA82F2D5E71D680A68C2F3BF
:10297000120696BB900E013000F01F0009288CBF94
:1029800000200120002852D09EBB940E0134A406E2
:1029900004F0F844B6BB900E013000F01F07012090
:1029A000B8400443C6BB920E013202F01F0202EB94
:1029B0004202120522438C681435500E800000F04C
:1029C00004002E58C2F304520727974026EA070650
:1029D00004FA02F232432A5048E792FAA2F0B0FA1F
:1029E00080F0013000F01F0009288CBF002001207A
:1029F000C8E792FAA2F4B4FA84F40134A40604F00D
:102A0000F844C7E792FAA2F0B0FA80F0013000F083
:102A10001F070120B840C4E792FAA2F2B2FA82F28C
:102A2000013202F01F0202EB42021205C2E7CEB9E8
:102A3000940E0134A40604F0F844E6B9900E013077
:102A400000F01F070120B8400443F6B9900E013092
:102A500000F01F0000EB40021E3A120542F0007227
:102A60002243A8E792FAA2F4B4FA84F40134A4064B
:102A700004F0F844E1E792FAA2F0B0FA80F00130F5
:102A800000F01F070120B840DEE792FAA2F0B0FA8A
:102A900080F0013000F01F0000EB40021E3A1205EA
:102AA00042F00072DCE711F4000F7FF4ECAE19681D
:102AB000184A914201D000205FE644F40002114818
:102AC000816821F0E0710A438260134A126892091A
:102AD0001249A1FB0212920902EB420292000192FA
:102AE00002E0019A013A0192019A002AF9D10020EC
:102AF00043E600BF00F0FF03FFFF070000007F4038
:102B00000000088000030450000052C7000084CB7E
:102B1000010000800000045008000020632D3E05E5
:102B200011F0807F7FF4B3AE1968144A914201D04E
:102B3000002022E644F080721148816821F0E071A3
:102B40000A438260002018E611F4800F11D1196841
:102B50000A4A914201D000200FE644F4800208485E
:102B6000816821F0E0710A438260002005E60020C0
:102B700003E6002001E6022002E600BF0000045048
:102B80000003045038B503689A6812F0010F3DD174
:102B9000044699681E4A114209D0436D43F0100360
:102BA0004365836D43F00103836501202FE09A683C
:102BB00022F0004222F03F0242F001029A60FDF74B
:102BC000F5FE054604E0FDF7F1FE431B022B11D88C
:102BD00023681A6812F0010F16D19A6812F0010FDB
:102BE000F1D19A6822F0004222F03F0242F0010245
:102BF0009A60E8E7636D43F010036365A36D43F0EB
:102C00000103A365012002E0002000E0002038BDA0
:102C10003F00008003689B6813F0040F6ED110B56D
:102C2000044690F85030012B6AD0012380F85030D0
:102C3000FFF7A8FF00285DD1636D23F4706323F0D4
:102C4000010343F480736365636D13F4805F3ED0CA
:102C5000A36D23F00603A36523681C221A600023DA
:102C600084F850302268536823F01C035360636972
:102C7000082B2FD02268536843F004035360636B22
:102C800023B92268536843F0100353602368DA685D
:102C900012F0007F11D0626D22F4405242F4805253
:102CA00062656269082A1BD05A6822F040025A60A5
:102CB0002268536843F0200353602268936823F02E
:102CC000004323F03F0343F00403936010BD00234F
:102CD000A365C1E72268536843F008035360CEE759
:102CE0005A6822F020025A602268536843F0400379
:102CF0005360E2E7002384F85030E7E70220704792
:102D00000220E3E770477047704770477047000044
:102D1000DFF834D0002103E00C4B5B584350043102
:102D20000B480C4B42189A42F6D30B4A02E00023A0
:102D300042F8043B094B9A42F9D3FEF7B5FE00F086
:102D400011F8FDF7C9FCFEE700000120502E000835
:102D5000000000201000002010000020340100209E
:102D6000FEE7000070B50D4D0D4C641BA41000264D
:102D7000A64209D10B4D0C4C00F020F8641BA410A6
:102D80000026A64205D170BD55F8043B9847013690
:102D9000EEE755F8043B98470136F2E7402E00086D
:102DA000402E0008402E0008442E0008024403462E
:102DB000934200D1704703F8011BF9E7F8B500BF53
:102DC000F8BC08BC9E467047F8B500BFF8BC08BC0C
:082DD0009E4670470000000060
:102DD80053657474696E672075702E2E2E2E000050
:102DE800646F6E6521000000000000000000000014
:102DF8000102030406070809000000000102030499
:102E0800A0860100400D0300801A060000350C0062
:102E180040420F0080841E0000093D0000127A0025
:102E28000024F40000366E010048E801006CDC0262
:082E3800D8D3FF7F0100000068
:082E4000B501000800000000CC
:082E48009101000800000000E8
:102E5000010000001000000000093D00000000001B
:0400000508002D11B1
:00000001FF
