:020000040800F2
:10000000000001204D400008091400080B140008EE
:100010000D1400080F14000811140008000000005F
:1000200000000000000000000000000013140008A1
:100030001514000800000000171400081914000827
:100040009D4000089D4000089D4000089D4000081C
:100050009D4000089D4000089D4000089D4000080C
:100060009D4000089D4000089D4000089D400008FC
:100070009D4000089D4000089D4000089D400008EC
:100080009D4000089D400008211400089D40000884
:100090009D4000089D4000089D4000089D400008CC
:1000A0009D4000089D4000089D4000089D400008BC
:1000B0003114000800000000000000009D4000080E
:1000C0009D40000800000000000000009D40000866
:1000D000000000009D4000089D4000080000000056
:1000E0009D4000089D400008000000000000000046
:1000F0000000000000000000000000000000000000
:100100000000000000000000000000009D4000080A
:1001100000000000000000009D4000089D40000815
:100120009D4000089D4000089D4000089D4000083B
:100130009D400008000000000000000000000000DA
:100140009D4000089D4000089D4000089D4000081B
:100150009D4000089D4000089D4000089D4000080B
:100160009D4000089D4000089D40000800000000E0
:100170009D4000089D4000080000000000000000B5
:100180009D4000089D4000089D40000800000000C0
:1001900010B5054C237833B9044B13B10448AFF3C1
:1001A00000800123237010BDE0010020000000004A
:1001B000C868000808B5034B1BB103490348AFF3F7
:1001C000008008BD00000000E4010020C8680008AD
:1001D000034613F8012B002AFBD1181A0138704787
:1001E00081F0004102E000BF83F0004330B54FEAE8
:1001F00041044FEA430594EA050F08BF90EA020F55
:100200001FBF54EA000C55EA020C7FEA645C7FEAE7
:10021000655C00F0E2804FEA5454D4EB5555B8BF0A
:100220006D420CDD2C4480EA020281EA030382EA7B
:10023000000083EA010180EA020281EA0303362D0D
:1002400088BF30BD11F0004F4FEA01314FF4801CE0
:100250004CEA113102D0404261EB410113F0004FF2
:100260004FEA03334CEA133302D0524263EB4303A9
:1002700094EA050F00F0A780A4F10104D5F1200E47
:100280000DDB02FA0EFC22FA05F2801841F10001A2
:1002900003FA0EF2801843FA05F359410EE0A5F176
:1002A00020050EF1200E012A03FA0EFC28BF4CF0A7
:1002B000020C43FA05F3C01851EBE37101F000455D
:1002C00007D54FF0000EDCF1000C7EEB00006EEB6A
:1002D0000101B1F5801F1BD3B1F5001F0CD34908F4
:1002E0005FEA30004FEA3C0C04F101044FEA44524B
:1002F00012F5800F80F09A80BCF1004F08BF5FEAD2
:10030000500C50F1000041EB045141EA050130BDB1
:100310005FEA4C0C404141EB0101013C28BFB1F5C3
:10032000801FE9D291F0000F04BF01460020B1FA0E
:1003300081F308BF2033A3F10B03B3F120020CDAE1
:100340000C3208DD02F1140CC2F10C0201FA0CF0BF
:1003500021FA02F10CE002F11402D8BFC2F1200C24
:1003600001FA02F120FA0CFCDCBF41EA0C019040DA
:10037000E41AA2BF01EB0451294330BD6FEA040423
:100380001F3C1CDA0C340EDC04F11404C4F120020E
:1003900020FA04F001FA02F340EA030021FA04F320
:1003A00045EA030130BDC4F10C04C4F1200220FA77
:1003B00002F001FA04F340EA0300294630BD21FAB5
:1003C00004F0294630BD94F0000F83F4801306BF7B
:1003D00081F480110134013D4EE77FEA645C18BF6F
:1003E0007FEA655C29D094EA050F08BF90EA020F06
:1003F00005D054EA000C04BF1946104630BD91EAFE
:10040000030F1EBF0021002030BD5FEA545C05D100
:100410004000494128BF41F0004130BD14F580043F
:100420003CBF01F5801130BD01F0004545F0FE41B3
:1004300041F470014FF0000030BD7FEA645C1ABFE8
:10044000194610467FEA655C1CBF0B46024650EA1F
:10045000013406BF52EA033591EA030F41F400214B
:1004600030BD00BF90F0000F04BF0021704730B5D1
:100470004FF4806404F132044FF000054FF00001A6
:1004800050E700BF90F0000F04BF0021704730B567
:100490004FF4806404F1320410F0004548BF40423C
:1004A0004FF000013EE700BF42004FEAE2014FEA91
:1004B00031014FEA02701FBF12F07F4393F07F4F6C
:1004C00081F06051704732F07F4208BF704793F06F
:1004D0007F4F04BF41F40021704730B54FF4607482
:1004E00001F0004521F000411CE700BF50EA010285
:1004F00008BF704730B54FF000050AE050EA01022E
:1005000008BF704730B511F0004502D5404261EB9D
:1005100041014FF4806404F132045FEA915C3FF4DE
:10052000D8AE4FF003025FEADC0C18BF03325FEA7B
:10053000DC0C18BF033202EBDC02C2F1200300FA2C
:1005400003FC20FA02F001FA03FE40EA0E0021FA51
:1005500002F11444BDE600BF70B54FF0FF0C4CF43F
:10056000E06C1CEA11541DBF1CEA135594EA0C0FF1
:1005700095EA0C0F00F0DEF82C4481EA030621EA2C
:100580004C5123EA4C5350EA013518BF52EA033567
:1005900041F4801143F4801338D0A0FB02CE4FF019
:1005A0000005E1FB02E506F00042E0FB03E54FF049
:1005B0000006E1FB03569CF0000F18BF4EF0010E41
:1005C000A4F1FF04B6F5007F64F5407404D25FEA3D
:1005D0004E0E6D4146EB060642EAC62141EA5551F0
:1005E0004FEAC52040EA5E504FEACE2EB4F1FD0C32
:1005F00088BFBCF5E06F1ED8BEF1004F08BF5FEAB0
:10060000500E50F1000041EB045170BD06F0004661
:1006100046EA010140EA020081EA0301B4EB5C040E
:10062000C2BFD4EB0C0541EA045170BD41F4801106
:100630004FF0000E013C00F3AB8014F1360FDEBF2B
:10064000002001F0004170BDC4F10004203C35DA07
:100650000C341BDC04F11404C4F1200500FA05F38A
:1006600020FA04F001FA05F240EA020001F000422B
:1006700021F0004110EBD37021FA04F642EB0601A1
:100680005EEA430E08BF20EAD37070BDC4F10C04CB
:10069000C4F1200500FA04F320FA05F001FA04F28F
:1006A00040EA020001F0004110EBD37041F100017B
:1006B0005EEA430E08BF20EAD37070BDC4F1200586
:1006C00000FA05F24EEA020E20FA04F301FA05F2EE
:1006D00043EA020321FA04F001F0004121FA04F296
:1006E00020EA020000EBD3705EEA430E08BF20EA66
:1006F000D37070BD94F0000F0FD101F000464000A0
:1007000041EB010111F4801F08BF013CF7D041EA21
:10071000060195F0000F18BF704703F00046520025
:1007200043EB030313F4801F08BF013DF7D043EAF6
:100730000603704794EA0C0F0CEA135518BF95EAAC
:100740000C0F0CD050EA410618BF52EA4306D1D133
:1007500081EA030101F000414FF0000070BD50EA52
:10076000410606BF1046194652EA430619D094EADC
:100770000C0F02D150EA013613D195EA0C0F05D1C6
:1007800052EA03361CBF104619460AD181EA03011A
:1007900001F0004141F0FE4141F470014FF00000D2
:1007A00070BD41F0FE4141F4780170BD70B54FF06D
:1007B000FF0C4CF4E06C1CEA11541DBF1CEA1355ED
:1007C00094EA0C0F95EA0C0F00F0A7F8A4EB0504CF
:1007D00081EA030E52EA03354FEA013100F08880C6
:1007E0004FEA03334FF0805545EA131343EA12638F
:1007F0004FEA022245EA111545EA10654FEA002644
:100800000EF000419D4208BF964244F1FD0404F5FC
:10081000407402D25B084FEA3202B61A65EB030558
:100820005B084FEA32024FF480104FF4002CB6EB15
:10083000020E75EB030E22BFB61A754640EA0C0095
:100840005B084FEA3202B6EB020E75EB030E22BFD5
:10085000B61A754640EA5C005B084FEA3202B6EB16
:10086000020E75EB030E22BFB61A754640EA9C00D5
:100870005B084FEA3202B6EB020E75EB030E22BFA5
:10088000B61A754640EADC0055EA060E18D04FEA63
:10089000051545EA16754FEA06164FEAC30343EA03
:1008A00052734FEAC2025FEA1C1CC0D111F4801FD0
:1008B0000BD141EA00014FF000004FF0004CB6E7C9
:1008C00011F4801F04BF01430020B4F1FD0C88BF68
:1008D000BCF5E06F3FF6AFAEB5EB030C04BFB6EB73
:1008E000020C5FEA500C50F1000041EB045170BD66
:1008F0000EF0004E4EEA113114EB5C04C2BFD4EB93
:100900000C0541EA045170BD41F480114FF0000E16
:10091000013C90E645EA060E8DE60CEA135594EA92
:100920000C0F08BF95EA0C0F3FF43BAF94EA0C0F95
:100930000AD150EA01347FF434AF95EA0C0F7FF40A
:1009400025AF104619462CE795EA0C0F06D152EA5E
:1009500003353FF4FDAE1046194622E750EA410642
:1009600018BF52EA43067FF4C5AE50EA41047FF453
:100970000DAF52EA43057FF4EBAE12E74FF0FF3CB8
:1009800006E000BF4FF0010C02E000BF4FF0010C89
:100990004DF804CD4FEA410C7FEA6C5C4FEA430C02
:1009A00018BF7FEA6C5C1BD001B050EA410C0CBF51
:1009B00052EA430C91EA030F02BF90EA020F0020B3
:1009C000704710F1000F91EA030F58BF994208BF1A
:1009D00090422CBFD8176FEAE37040F001007047D7
:1009E0004FEA410C7FEA6C5C02D150EA013C07D12E
:1009F0004FEA430C7FEA6C5CD6D152EA033CD3D079
:100A00005DF8040B704700BF8446104662468C4672
:100A10001946634600E000BF01B5FFF7B7FF0028A5
:100A200048BF10F1000F01BD4DF808EDFFF7F4FFCE
:100A30000CBF012000205DF808FB00BF4DF808ED59
:100A4000FFF7EAFF34BF012000205DF808FB00BF7C
:100A50004DF808EDFFF7E0FF94BF012000205DF89E
:100A600008FB00BF4DF808EDFFF7CEFF94BF012053
:100A700000205DF808FB00BF4DF808EDFFF7C4FF4C
:100A800034BF012000205DF808FB00BF4FEA410C95
:100A90007FEA6C5C02D150EA013C0AD14FEA430C78
:100AA0007FEA6C5C02D152EA033C02D14FF00000B5
:100AB00070474FF0010070474FEA410212F50012F3
:100AC00015D211D56FF47873B3EB625212D94FEA95
:100AD000C12343F0004343EA505311F0004F23FA7F
:100AE00002F018BF404270474FF00000704750EAD4
:100AF000013005D111F0004008BF6FF00040704791
:100B00004FF00000704700BF4FEA4102B2F1E043EE
:100B100024BFB3F5001CDCF1FE5C0DD901F0004CE4
:100B20004FEAC0024CEA5070B2F1004F40EB830034
:100B300008BF20F00100704711F0804F21D113F160
:100B40003872BCBF01F00040704741F480114FEA99
:100B50005252C2F11802C2F1200C10FA0CF320FA22
:100B600002F018BF40F001004FEAC1234FEAD3233F
:100B700003FA0CFC40EA0C0023FA02F34FEA4303A9
:100B8000CCE77FEA625307D150EA01331EBF4FF032
:100B9000FE4040F44000704701F0004040F0FE404D
:100BA00040F40000704700BF53B94AB9002908BF9C
:100BB00000281CBF4FF0FF314FF0FF3000F06EB93E
:100BC000ADF1080C6DE904CE00F006F8DDF804E0A4
:100BD000DDE9022304B070472DE9F047089D044683
:100BE0008C46002B40F083808A42174647D9B2FAE0
:100BF00082F242B1C2F1200024FA00F09140974005
:100C000040EA010C94404FEA1748230CBCFBF8F66D
:100C10001FFA87FE08FB16C143EA014306FB0EF1EB
:100C2000994209D9FB1806F1FF3080F019819942E9
:100C300040F21681023E3B445B1AA4B2B3FBF8F0CB
:100C400008FB103344EA034400FB0EFEA64509D915
:100C50003C1900F1FF3380F00581A64540F2028186
:100C600002383C4440EA0640A4EB0E0400261DB1C5
:100C7000D4400023C5E900433146BDE8F08702B9FE
:100C8000FFDEB2FA82F2002A50D1CB1B4FEA174E98
:100C90001FFA87F80126B3FBFEFC210C0EFB1C3368
:100CA00041EA034108FB0CF38B4207D979180CF198
:100CB000FF3002D28B4200F2E9808446C91AA3B207
:100CC000B1FBFEF00EFB101143EA014408FB00F8F3
:100CD000A04507D93C1900F1FF3302D2A04500F22C
:100CE000D9801846A4EB080440EA0C40BFE78B42C9
:100CF00009D9002D00F0B1800026C5E90001304679
:100D00003146BDE8F087B3FA83F6002E4AD18B4214
:100D100002D3824200F2B880841A61EB0301012001
:100D20008C46002DA8D0C5E9004CA5E7C2F12003F0
:100D300020FA03F6974001FA02F04FEA174ED94025
:100D40003043030CB1FBFEF61FFA87F80EFB1611B9
:100D500043EA014306FB08F1994204FA02F409D977
:100D6000FB1806F1FF3C80F08D80994240F28A80AA
:100D7000023E3B445B1A81B2B3FBFEF00EFB103324
:100D800041EA034100FB08F38B4207D9791800F1CF
:100D9000FF3C73D28B4271D902383944CB1A40EAF6
:100DA000064678E7C6F1200C03FA06F422FA0CF3A3
:100DB0001C4320FA0CF701FA06F34FEA144E21FA0D
:100DC0000CF11F433B0CB1FBFEF91FFA84F80EFB3C
:100DD000191143EA014109FB08FA8A4502FA06F2B1
:100DE00000FA06F308D9611809F1FF3048D28A45A4
:100DF00046D9A9F102092144A1EB0A01BFB2B1FB16
:100E0000FEF00EFB101147EA014700FB08F8B84559
:100E100007D9E71900F1FF312ED2B8452CD9023895
:100E2000274440EA0940A7EB0807A0FB02894F4589
:100E3000C64649461AD317D05DB1B3EB0E0267EB35
:100E4000010707FA0CFCF2404CEA0202F740C5E940
:100E5000002700263146BDE8F0872E4628460BE7DE
:100E60000646E9E61846FDE64345E5D2B8EB020E34
:100E700069EB04010138DFE70846D2E760468DE7F9
:100E80008146B9E7664675E730464AE7ACF1020CA1
:100E9000394413E702383C4424E700BF704700BFE1
:100EA00030B589B000240394049405940694079403
:100EB000114BDA6C42F00102DA64DA6C02F00102E2
:100EC0000192019ADA6C42F00202DA64DB6C03F000
:100ED00002030293029B094D22460121284601F09C
:100EE000F7FB0123039304930594069403A9284672
:100EF00001F02EFB09B030BD001002400004004894
:100F000008B50948094B03604FF4E13343600023FF
:100F10008360C36003610C2242618361C361036229
:100F2000436202F0D4F908BD64030020004400408D
:100F300010B58AB02422002101A803F0DDF8094C85
:100F4000094B2360204602F0F3F90022019202923D
:100F500003920492059201A9204602F042FA0AB0D7
:100F600010BD00BF100200200074004070B586B0B4
:100F70000025009501950295039504950595184C5B
:100F8000184B23604FF440336360A560E560256132
:100F900008266661257601236376E36184F8205094
:100FA0006362A562E56284F83050656384F8385066
:100FB000204602F0B1FA0C4B009306230193032361
:100FC00002937F23039304230493059569462046E7
:100FD00002F0AEFC6661204602F09EFA06B070BDDB
:100FE00094020020000004500004002A08B50848BC
:100FF000084B0360002343600822C26043614FF442
:101000000072026183618360C36102F073FF08BDF7
:10101000600200200078004030B589B000240494BC
:101020000594069407940194029403940E4D4FF096
:1010300080432B6020236B60AC600A23EB602C6143
:10104000AC61284601F052FD4FF48053049304A98B
:10105000284601F071FD0194039401A9284601F08E
:10106000D9FD09B030BD00BF2403002030B583B0E6
:1010700004460D460846FFF7ABF80A2382B229461C
:10108000204602F083F840F60D2301930A23022242
:1010900001A9204602F07AF803B030BD30B5ADB0FA
:1010A000402200211CA803F027F80024169417946E
:1010B000189419941A945422214601A803F01CF89C
:1010C00010231B9301252195A02323931BA800F037
:1010D000FDFB0F2316931794189419941A9429461C
:1010E00016A800F033FF44F2020301930A944FF074
:1010F000805313930295022303930822049207223C
:101100000592069307934FF08073089301A801F0AE
:10111000ABF84FF4007001F0E9FA2DB030BD0000DB
:1011200008B500F0FBFAFFF7B9FFFFF7B9FEFFF7CC
:10113000E7FEFFF7FDFEFFF719FFFFF757FFFFF789
:101140006BFF174C17492046FFF790FF164800F039
:1011500075F8164800F084F8154800F03DF8154879
:1011600000F038F914492046FFF780FF00211348AA
:1011700002F0F0F8124802F04DFF12492046FFF746
:1011800075FF114802F038FE10492046FFF76EFF48
:101190000F4801F08BFB0F492046FFF767FFFEE782
:1011A00064030020E06800084802002024020020B8
:1011B0000C020020F8020020F46800081002002051
:1011C00060020020086900089402002014690008E9
:1011D000240300202069000840F28A23036070473E
:1011E000F8B504460D464068A168226891FBF2F309
:1011F00002FB1313D4E9046730F91300FFF742F937
:1012000032463B46FFF7A8F906460F462868FFF727
:1012100039F932463B46FEF7E9FFFFF74DFC2860FF
:101220006568A168226891FBF2F302FB131325F8AD
:101230001300A3680133A360F8BD000010B5044695
:101240000023836041F64C502060022102F028FF09
:1012500060600022014BC4E9042310BD0000E03FA0
:1012600010B5044641F64C502060022102F018FFF0
:101270006060044BA3600023E3604FF0FF33236101
:1012800010BD00BF00606A452DE970432DED028B53
:1012900004460E464568C36805EBC3050868FFF7BA
:1012A000F1F8C5E90001E3680133E36000F052FAA8
:1012B000474981FB0023C217C2EBA3124FF47A7394
:1012C00003FB1202B4F92250012393FBF5F303FB55
:1012D00002F381FB0321DB17C3EBA11094ED078A16
:1012E00007EE900AF8EEE77A17EE900AFFF7DCF8BF
:1012F00035A3D3E90023FFF72FF980468946284616
:10130000FFF7C0F842464B46FFF726F9FFF7FCFB14
:1013100000EE100A04F07EFC28EE000A38EE008A87
:10132000B4F9203000EE103AB8EEC00A30EE080AE8
:1013300084ED050A94ED067AF7EE007A37EEC77A67
:10134000D6ED007AF8EEE77A67EE877AFDEEE77A77
:1013500017EE905AC6ED007AA069FFF7A5F863680A
:10136000D4ED027AFDEEE77A17EE902A03EBC20382
:10137000D3E90023FFF7F0F8804689462846FFF7B7
:1013800081F842464B46FEF731FFFFF795FB306090
:10139000D4ED057A94ED027A77EE877AC4ED027A7D
:1013A000E26823689A4201DD0022E260FDEEE77AFE
:1013B00017EE902A934201DA0023A360BDEC028B62
:1013C000BDE87083AFF30080182D4454FB21194011
:1013D000D34D621010B504464FF47A702060082196
:1013E00002F05EFE60600023A3600022E2602361E1
:1013F00063614FF07D53A361024BE36101232384BA
:10140000638410BD0AD7A33B7047FEE7FEE7FEE703
:10141000FEE770477047704708B500F08FF908BDC8
:1014200008B5024802F069F908BD00BF9402002027
:1014300008B5024801F054FA08BD00BF240300209B
:1014400008B5034802F054F9024B186008BD00BF0C
:10145000940200201C03002010B50C4A536983F04D
:10146000010353610A4C0B4B1B68236021460A4859
:10147000FFF70AFF21460948FFF7B2FE2368002262
:101480001146074801F096FF10BD00BF0004004858
:10149000E40300201C030020F80200204802002082
:1014A0001002002082B00A4B1A6E42F001021A6646
:1014B0001A6E02F001020092009A9A6D42F0805278
:1014C0009A659B6D03F080530193019B02B07047B6
:1014D0000010024010B588B00023039304930593D5
:1014E000069307930268174B9A4201D008B010BDCB
:1014F00003F17043A3F5F833DA6C42F40052DA6476
:10150000DA6C02F400520192019ADA6C42F00102A4
:10151000DA64DB6C03F001030293029B2023039344
:101520000B2304930024059403A94FF0904001F08D
:101530000FF822462146122001F032F9122001F064
:1015400063F9D3E70000045000B589B0002303938A
:1015500004930593069307930268134B9A4202D0B3
:1015600009B05DF804FB03F5CE339A6D42F00052EA
:101570009A659A6D02F000520192019ADA6C42F07B
:101580000102DA64DB6C03F001030293029B102377
:101590000393032304930023059303A94FF0904082
:1015A00000F0D6FFDCE700BF0074004000B589B052
:1015B0000023039304930593069307930268134B48
:1015C0009A4202D009B05DF804FB03F5CC339A6D62
:1015D00042F080429A659A6D02F080420192019A2F
:1015E000DA6C42F00102DA64DB6C03F0010302936F
:1015F000029B09230393032304930023059303A968
:101600004FF0904000F0A4FFDCE700BF00780040FE
:101610000368B3F1804F00D0704700B583B003F585
:1016200004339A6D42F001029A659B6D03F0010349
:101630000193019B002211461C2001F0B1F81C20EF
:1016400001F0E2F803B05DF804FB000070B588B06B
:1016500000230393049305930693079302681A4BA0
:101660009A4201D008B070BD03F5E6339A6D42F49A
:1016700000329A659A6D02F400320192019ADA6C96
:1016800042F00102DA64DB6C03F001030293029B77
:10169000042303930226049600250595032406944B
:1016A0000723079303A94FF0904000F051FF4FF438
:1016B00000430393049605950694079403A94FF0FD
:1016C000904000F045FFCDE700440040104B1B6800
:1016D0000BB90120704710B504464FF47A70B0FB87
:1016E000F3F30C4A1068B0FBF3F001F09BF868B913
:1016F0000F2C01D901200AE0002221464FF0FF30D3
:1017000001F04EF8044B1C60002000E0012010BDE9
:1017100000000020080000200400002010B5032075
:1017200001F02CF80020FFF7D1FF10B10124204672
:1017300010BD0446FFF7B6FEF9E70000034A136840
:10174000034909680B441360704700BFE803002099
:1017500000000020014B1868704700BFE80300201C
:1017600038B50446FFF7F6FF0546B4F1FF3F02D057
:10177000044B1B681C44FFF7EDFF401BA042FAD34B
:1017800038BD00BF0000002030B583B00446204BB8
:101790009B6D13F0805F0BD000F0A0FFB0F5007FD1
:1017A00017D0802C1FD82DD0702C2DD000211BE0FD
:1017B000174DAB6D43F08053AB65AB6D03F08053B9
:1017C0000193019B00F08AFFAB6D23F08053AB6562
:1017D000E4E7802C03D9A02C03D9022104E00021E6
:1017E00002E0012100E003210A4A136823F0070305
:1017F0000B431360136803F007038B4206D10020EC
:1018000003B030BD0221EFE70121EDE70120F7E74A
:101810000010024000200240284A9368D26802F07B
:10182000030213F00C030AD00C2B06D0042B1FD09C
:10183000082B20D00020024610E0012AF6D11F4AD2
:10184000126812F0080F0CD11C4AD2F89420C2F38F
:1018500003221B4951F8222043B100200C2B0DD04C
:101860007047164A1268C2F30312F2E71046F5E712
:1018700014480022F2E714480022EFE70F4BDB6820
:1018800003F00303022B16D0032B00D10E4A0B4B9F
:10189000D868C0F302100130D968C1F3062102FBF9
:1018A00001F2B2FBF0F2D868C0F3416001304000B1
:1018B000B2FBF0F0D4E7034AE9E700BF00100240B2
:1018C000406900080024F40000127A00002800F0AB
:1018D0002783F0B583B00446AE4B9D6805F00C0538
:1018E000DE6806F00306036813F0100F5AD0E5B166
:1018F0000C2D18D0A369002B00F0BB80A54A1368FB
:1019000043F001031360FFF725FF0746A14B1B6857
:1019100013F0020F40F09A80FFF71CFFC01B022853
:10192000F4D9032007E3012EE4D19A4B1B6813F08E
:10193000020F03D0A369002B00F0F482206A954BBC
:101940001B6813F0080F5BD0924B1B6803F0F00389
:1019500098425CD88F4B1A6842F008021A601A68E5
:1019600022F0F002216A0A431A605A6822F47F4288
:10197000E16942EA01225A60002D60D0FFF74CFF76
:10198000844B9B68C3F30313834AD35C03F01F03A8
:10199000D840824B1860824B1868FFF797FE0028EA
:1019A00040F0C982236813F0010F00F08180082DF8
:1019B00075D00C2D71D06368B3F5803F00F097802F
:1019C000B3F5A02F00F09980724B1A6822F4803290
:1019D0001A601A6822F480221A606368002B00F0F3
:1019E0009980FFF7B7FE07466A4B1B6813F4003F68
:1019F0005ED1FFF7AFFEC01B6428F5D903209AE241
:101A0000644BD3F894301B0903F0F003A0E7FFF711
:101A1000BBFE002840F088825E4B1A6842F0080244
:101A20001A601A6822F0F002216A0A431A605A68A2
:101A300022F47F42E16942EA01225A609EE7206A6D
:101A4000FFF7A2FE002899D0012074E2514B1A68DA
:101A500042F008021A601A6822F0F002216A0A4372
:101A60001A605A6822F47F42E16942EA01225A6010
:101A700098E7484A136823F001031360FFF76AFEF2
:101A80000746444B1B6813F0020F8BD0FFF762FE32
:101A9000C01B0228F5D903204DE2032E8BD13D4B0C
:101AA0001B6813F4003F03D06368002B00F03E82F4
:101AB000236813F0020F4FD0042D3CD00C2D38D0EA
:101AC000E368002B77D0334A136843F480731360C4
:101AD000FFF740FE06462F4B1B6813F4806F61D161
:101AE000FFF738FE801B0228F5D9032023E2294A9C
:101AF000136843F4803313606FE703F18043A3F569
:101B00003C331A6842F480221A601A6842F4803228
:101B10001A6062E7FFF71EFE07461E4B1B6813F4B0
:101B2000003FC5D0FFF716FEC01B6428F5D903207F
:101B300001E2022EC4D1174B1B6813F4806F03D04F
:101B4000E368002B00F0F481124A536823F0F85345
:101B5000216943EA01635360236813F0080F55D0ED
:101B60006369002B3BD00B4AD2F8943043F0010359
:101B7000C2F89430FFF7EEFD0646064BD3F89430DA
:101B800013F0020F42D1FFF7E5FD801B0228F4D9C4
:101B90000320D0E10010024028690008080000205E
:101BA00004000020B44A536823F0F853216943EA43
:101BB00001635360D0E7B04A136823F48073136065
:101BC000FFF7C8FD0646AC4B1B6813F4806FC3D00B
:101BD000FFF7C0FD801B0228F5D90320ABE1A64A20
:101BE000D2F8943023F00103C2F89430FFF7B2FD2D
:101BF0000646A14BD3F8943013F0020F06D0FFF73E
:101C0000A9FD801B0228F4D9032094E1236813F076
:101C1000040F7AD0984B9B6D13F0805F36D1964BB2
:101C20009A6D42F080529A659B6D03F08053019348
:101C3000019B0126914B1B6813F4807F28D0A36879
:101C4000012B39D0052B3FD08B4BD3F8902022F0BD
:101C50000102C3F89020D3F8902022F00402C3F8C8
:101C60009020A368002B3DD0FFF774FD0746824B00
:101C7000D3F8903013F0020F46D1FFF76BFDC01B75
:101C800041F288339842F2D9032054E10026D1E78B
:101C90007A4A136843F480731360FFF75BFD0746CD
:101CA000764B1B6813F4807FC9D1FFF753FDC01B2F
:101CB0000228F5D903203EE16F4AD2F8903043F074
:101CC0000103C2F89030CCE76B4BD3F8902042F080
:101CD0000402C3F89020D3F8902042F00102C3F828
:101CE0009020BEE7FFF736FD0746634BD3F89030F0
:101CF00013F0020F08D0FFF72DFDC01B41F288330F
:101D00009842F2D9032016E1E6B9236813F0200FB8
:101D100035D0636AE3B1584AD2F8983043F00103F2
:101D2000C2F89830FFF716FD0646534BD3F89830AB
:101D300013F0020F23D1FFF70DFD801B0228F4D909
:101D40000320F8E04C4A936D23F080539365DCE761
:101D5000494AD2F8983023F00103C2F89830FFF7CF
:101D6000F9FC0646444BD3F8983013F0020F06D026
:101D7000FFF7F0FC801B0228F4D90320DBE0A36A04
:101D8000002B00F0D780022B27D00C2D00F0D7803D
:101D9000394B1A6822F080721A601B6813F0006FCA
:101DA00004D1354AD36823F00303D360324AD368A1
:101DB00023F0887323F48033D360FFF7CBFC044611
:101DC0002D4B1B6813F0007F00F0A880FFF7C2FCCA
:101DD000001B0228F4D90320ADE0274BDB6803F099
:101DE0000301E26A914209D00C2D00F0A680224B3B
:101DF0001B6813F0806F2BD001209CE003F0700271
:101E0000216B0139B2EB011FEED103F4FE42616B8D
:101E1000B2EB012FE8D103F07842A16BB2EBC16FB6
:101E2000E2D103F4C001E26B5208013AB1EB425F28
:101E3000DAD103F0C063226C5208013AB3EB426F6F
:101E4000D2D10D4B1B6813F0007F4DD0002072E003
:101E5000094A136823F080731360FFF77BFC054683
:101E6000054B1B6813F0007F0AD0FFF773FC401B83
:101E70000228F5D903205EE0001002400070004007
:101E8000304AD36830491940E36A206B013843EA8D
:101E90000013606B43EA0023E06B4008013843EA1B
:101EA0004053206C4008013843EA4063A06B43EA8A
:101EB000C0630B43D360136843F080731360D3682F
:101EC00043F08073D360FFF745FC04461D4B1B684D
:101ED00013F0007F06D1FFF73DFC001B0228F5D967
:101EE000032028E0002026E0164B1A6842F080729A
:101EF0001A60DA6842F08072DA60FFF72BFC044661
:101F0000104B1B6813F0007F06D1FFF723FC031B67
:101F1000022BF5D903200EE000200CE000200AE09F
:101F200001207047012006E0012004E0012002E0CA
:101F3000012000E0002003B0F0BD0120FBE70120FC
:101F4000F9E700BF001002408C809D01002800F0DE
:101F5000988070B50C4605464E4B1B6803F007038E
:101F60008B420BD24B4A136823F007030B431360D9
:101F7000136803F007038B4240F085802B6813F051
:101F8000010F39D06B68032B09D0022B26D063BB1D
:101F9000414A126812F0020F06D1012070E03E4A59
:101FA000126812F0007F70D03B498A6822F0030269
:101FB00013438B60FFF7CEFB0646374B9B6803F05D
:101FC0000C036A68B3EB820F16D0FFF7C3FB801BCC
:101FD00041F288339842F0D9032051E02E4A12682A
:101FE00012F4003FE0D101204AE02B4A126812F4BB
:101FF000806FD9D1012043E02B6813F0020F06D087
:10200000254A936823F0F003A9680B439360214BA2
:102010001B6803F00703A3420AD91E4A136823F082
:10202000070323431360136803F00703A3422ED171
:102030002B6813F0040F06D0174A936823F4E0636B
:10204000E9680B4393602B6813F0080F07D0124A1E
:10205000936823F46053296943EAC1039360FFF74F
:10206000DBFB0D4B9B68C3F303130C4AD35C03F0FB
:102070001F03D8400A4B18600A4B1868FFF726FB6D
:1020800070BD012070470120FAE70120F8E7012028
:10209000F6E700BF00200240001002402869000857
:1020A0000800002004000020014B1868704700BFA2
:1020B0000800002008B5FFF7F7FF054B9B68C3F346
:1020C0000223044AD35C03F01F03D84008BD00BFBD
:1020D000001002403869000808B5FFF7E5FF054B1E
:1020E0009B68C3F3C223044AD35C03F01F03D840A8
:1020F00008BD00BF0010024038690008F8B504466A
:102100000F46584BDB6813F0030F18D0554BDB68B4
:1021100003F003030268934202D001252846F8BD6C
:10212000002A00F09D804F4BDB68C3F3021301339C
:102130004268934201D00125F0E7002509E00368D9
:10214000022B56D0032B5BD0012B41D00125002D53
:10215000E4D1444A136823F080631360FFF7FAFA6E
:102160000646404B1B6813F0006F05D0FFF7F2FAEC
:10217000831B022BF5D90325002DCFD1002F4DD184
:1021800038490B6923F0784323F4FE43A068E268E2
:10219000D20642EA002213430B61324A136843F02D
:1021A00080631360FFF7D6FA06462E4B1B6813F0C8
:1021B000006F05D1FFF7CEFA831B022BF5D903255B
:1021C000002DABD1274A1369A1690B431361A5E721
:1021D000244A126812F0020F1ED02248C26822F070
:1021E00073026168013943EA01131343C360002598
:1021F000ADE71C4A126812F4806FEED10125A6E704
:10220000184A126812F4003FE7D1164A126812F415
:10221000802FE2D101259AE7012598E7012F0FD001
:102220001048026922F0C06222F4FE42A16863698C
:102230005B08013B5B0643EA012313430361ACE700
:102240000848026922F4C00222F4FE42A168236910
:102250005B08013B5B0543EA0123134303619CE7F1
:1022600001255BE7001002402DE9F04182B00446F1
:10227000036813F4006F25D0C36BB3F5000F06D0CD
:10228000B3F5400F12D04BB1012637461CE0AE4AE1
:10229000D36843F48033D360002708E00021043082
:1022A000FFF72CFF074610B106460DE00027A64AAF
:1022B000D2F8883023F44003E16B0B43C2F8883036
:1022C000002601E000263746236813F4003F6BD058
:1022D0009D4B9B6D13F0805F4CD19B4B9A6D42F0F0
:1022E00080529A659B6D03F080530193019B4FF0E0
:1022F0000108964A136843F480731360FFF72AFAC3
:102300000546924B1B6813F4807F05D1FFF722FA34
:10231000401B0228F5D90327002F40D18A4BD3F860
:10232000903013F4407315D0226D9A4212D0864A31
:10233000D2F8903023F44073D2F8901041F48031F9
:10234000C2F89010D2F8901021F48031C2F89010A9
:10235000C2F8903013F0010F0FD1002F40F0C98068
:10236000794AD2F8903023F44073216D0B43C2F8C0
:10237000903015E04FF00008BBE7FFF7EBF905469A
:10238000714BD3F8903013F0020FE6D1FFF7E2F96A
:10239000401B41F288339842F2D90327DDE73E46DD
:1023A000B8F1000F40F0A780236813F0010F08D0A8
:1023B000654AD2F8883023F00303216A0B43C2F840
:1023C0008830236813F0020F08D05F4AD2F88830B3
:1023D00023F00C03616A0B43C2F88830236813F0C2
:1023E000200F08D0584AD2F8883023F44063A16AFD
:1023F0000B43C2F88830236813F4007F08D0524A98
:10240000D2F8883023F44023616B0B43C2F8883044
:10241000236813F4806F08D04B4AD2F8883023F435
:102420004013A16B0B43C2F88830236813F0400FB0
:1024300008D0454AD2F8883023F44053E16A0B4370
:10244000C2F88830236813F4807F08D03E4AD2F85F
:10245000883023F44033216B0B43C2F88830236863
:1024600013F4005F0FD0384AD2F8883023F040636D
:10247000216C0B43C2F88830236CB3F1006F40D05D
:10248000B3F1806F42D0236813F4802F0FD02E4A0F
:10249000D2F8883023F04063616C0B43C2F8883077
:1024A000636CB3F1006F39D0B3F1806F3BD0236818
:1024B00013F4804F0CD0244AD2F8883023F04053D4
:1024C000A16C0B43C2F88830A36CB3F1805F32D0AB
:1024D000236813F4004F08D01B4AD2F8883023F049
:1024E0008043E16C0B43C2F88830304602B0BDE84F
:1024F000F0813E4654E7144A936D23F08053936570
:1025000052E7D36843F48013D360BCE70121201D58
:10251000FFF7F4FD0028B6D00646B4E7D36843F4CD
:102520008013D360C3E70121201DFFF7E7FD0028DA
:10253000BDD00646BBE70221201DFFF7DFFD0028C6
:10254000C6D00646C4E700BF00100240007000403D
:10255000F0B583B0002397E086685F000325BD4097
:1025600026EA0506CD68BD4035438560466826EA03
:1025700004064D68C5F300149C4034434460C768AA
:102580005E000325B540EC4327EA05078D68B5409A
:102590003D43C5604D68022D01D0122D13D1DF08D7
:1025A000083750F827E003F007054FEA850C0F25A0
:1025B00005FA0CF52EEA050E0D6905FA0CF545EA4B
:1025C0000E0540F82750056825404C6804F00304C8
:1025D000B4402C4304604C6814F0805F53D0384CF6
:1025E000256E45F001052566246E04F00104019472
:1025F000019C9D08AE1C334C54F8267003F0030474
:10260000A6000F24B44027EA0407B0F1904F51D040
:102610002D4CA04250D004F58064A04248D007243D
:10262000B4403C430235274E46F82540274C2568E8
:10263000D44325EA02064F6817F4803F01D042EAEE
:102640000506224D2E606D6804EA05064F6817F4F2
:10265000003F01D042EA05061C4D6E60AD6804EAF9
:1026600005064F6817F4801F01D042EA0506174D92
:10267000AE60ED682C404E6816F4001F01D042EAAF
:102680000504124AD46001330A6832FA03F415D003
:1026900001249C402240F6D04D686E1E012E7FF62C
:1026A0005BAF112D3FF458AF122D7FF468AF53E7A5
:1026B0000224B5E70024B3E70124B1E703B0F0BD7D
:1026C00000100240000001400004004800040140E6
:1026D0000AB181617047816270470000024B18683F
:1026E00000F4C060704700BF00700040B0F5007F8C
:1026F0000FD01F4B1B6803F4C063B3F5806F34D059
:102700001B4A136823F4C06343F480631360002002
:102710007047174B1B6803F4C063B3F5007F20D0EC
:10272000134A136823F4C06343F400731360114B1E
:102730001A68322303FB02F30F4AA2FB03239B0C0C
:10274000013300E0013B0A4A526912F4806F01D064
:10275000002BF7D1064B5B6913F4806F03D1002087
:10276000704700207047032070470020704700BF6B
:10277000007000400800002083DE1B43074AD36836
:1027800023F4E0631B041B0C000200F4E06003432D
:1027900043F0BF6343F40033D360704700ED00E0C3
:1027A00030B4174BDB68C3F30223C3F10704042CD6
:1027B00028BF04241D1D062D18D9033B4FF0FF35FB
:1027C00005FA04F421EA0401994005FA03F322EA28
:1027D0000303194300280BDB0901C9B200F1604073
:1027E00000F5614080F8001330BC70470023E5E736
:1027F00000F00F000901C9B2024B1954F4E700BF01
:1028000000ED00E014ED00E0002807DB00F01F02FF
:10281000400901239340024A42F82030704700BF2C
:1028200000E100E00138B0F1807F0AD2064B586029
:10283000064AF02182F823100020986007221A60CF
:1028400070470120704700BF10E000E000ED00E09D
:1028500030B4036A056A25F001050562846924F035
:10286000F00444EA021423F00A030B438461036278
:1028700030BC704730B4056A25F0100505628469E4
:10288000036A24F4704444EA023423F0A00343EAC8
:1028900001138461036230BC7047836823F07003C6
:1028A0000B4343F007038360704700000268D3685E
:1028B00043F00103D36002689168064B0B40062B7E
:1028C00006D0B3F5803F03D0136843F001031360D3
:1028D000002070470700010070477047704770473D
:1028E00010B5044603681A6912F0020F11D0DA68B5
:1028F00012F0020F0DD06FF002021A61012303776C
:1029000003689B6913F0030F79D0FFF7E6FF0023FC
:10291000237723681A6912F0040F12D0DA6812F0D4
:10292000040F0ED06FF004021A610223237723688C
:102930009B6913F4407F68D02046FFF7CEFF002349
:10294000237723681A6912F0080F12D0DA6812F0A0
:10295000080F0ED06FF008021A6104232377236852
:10296000DB6913F0030F57D02046FFF7B6FF0023B3
:10297000237723681A6912F0100F12D0DA6812F068
:10298000100F0ED06FF010021A610823237723680E
:10299000DB6913F4407F46D02046FFF79EFF0023FB
:1029A000237723681A6912F0010F03D0DA6812F056
:1029B000010F3FD123681A6912F0800F03D0DA6843
:1029C00012F0800F3DD123681A6912F4807F03D082
:1029D000DA6812F0800F3BD123681A6912F0400FB9
:1029E00003D0DA6812F0400F39D123681A6912F067
:1029F000200F03D0DA6812F0200F37D110BDFFF797
:102A00006BFF2046FFF76AFF81E72046FFF764FF70
:102A10002046FFF763FF92E72046FFF75DFF204661
:102A2000FFF75CFFA3E72046FFF756FF2046FFF7BE
:102A300055FFB4E76FF001021A612046FEF70CFD66
:102A4000B8E76FF080021A61204600F01CF9BAE77F
:102A50006FF480721A61204600F016F9BCE76FF03F
:102A600040021A612046FFF73AFFBEE76FF02002EE
:102A70001A61204600F006F9C0E7000003681A4A10
:102A8000904202D0B0F1804F03D123F070034A6826
:102A90001343154A90420AD0B0F1804F07D002F597
:102AA000A052904203D002F58062904203D123F4F9
:102AB0004073CA68134323F080034A6913430360D9
:102AC0008B68C3620B688362074B984207D003F59B
:102AD000A053984203D003F58063984201D10B695B
:102AE0000363012343617047002C0140B0B110B56E
:102AF000044690F83D3063B1022384F83D3021460E
:102B000051F8040BFFF7BAFF012384F83D30002091
:102B100010BD80F83C30FEF77BFDEDE701207047EB
:102B200010B4846824F47F4442EA03220A43224317
:102B300082605DF8044B704790F83C30012B64D004
:102B400010B50446012380F83C30022380F83D3064
:102B5000026890682E4B034093600B68602B40D056
:102B600022D8402B47D00BD9502B0ED1CA684968C8
:102B70002068FFF76DFE50212068FFF78EFE04E00D
:102B8000202B0CD008D9302B09D0012384F83D30FC
:102B9000002084F83C0010BD0BB1102BF5D1194674
:102BA0002068FFF77AFEF0E7702B0ED0B3F5005FD8
:102BB000EBD1CB684A6889682068FFF7B1FF2268CB
:102BC000936843F480439360DFE7CB684A68896881
:102BD0002068FFF7A5FF2268936843F077039360AE
:102BE000D3E7CA6849682068FFF744FE602120687F
:102BF000FFF753FEC9E7CA6849682068FFF728FE57
:102C000040212068FFF749FEBFE70220704700BF60
:102C10008800FEFF90F83C30012B2FD030B4012308
:102C200080F83C30022380F83D3002685368956894
:102C3000134CA2421DD023F070030C682343536051
:102C400003680F4A934206D0B3F1804F03D002F5D8
:102C5000A052934204D125F080058A6815439D60F7
:102C6000012380F83D30002380F83C30184630BC0A
:102C7000704723F470034C682343DCE7022070475D
:102C8000002C014070477047704700000F49D1F891
:102C9000883043F47003C1F888300D4B1A6842F055
:102CA00001021A60002098601A6822F0A85222F4EB
:102CB00010221A604FF48052DA601A6822F48022DF
:102CC0001A6098614FF000638B60704700ED00E080
:102CD00000100240F8B50446016883680269134396
:102CE00042691343C269134308689F4A0240134371
:102CF0000B602268536823F44053E1680B43536030
:102D0000A1692268994B9A4201D0236A19439368BA
:102D100023F430630B4393602368954A93421CD09D
:102D2000944A93422DD0914A934243D010258F4A22
:102D3000934260D0E369B3F5004F00F0C680082DE0
:102D400000F25D81DFE815F01E0133013D015B01FA
:102D500048015B015B015B01520102F55842D2F868
:102D6000882002F00302032A09D8DFE802F00204F7
:102D700038060125DBE70425D9E70825D7E7102524
:102D8000D5E702F5E632D2F8882002F00C020C2AD0
:102D90000ED8DFE802F0070D0D0D090D0D0D260D03
:102DA0000D0D0B000025C2E70425C0E70825BEE78E
:102DB0001025BCE702F5C832D2F8882002F4406240
:102DC000B2F5006F0FD005D87AB1B2F5806F0ED191
:102DD0000425ACE7B2F5406F0BD10825A7E7022523
:102DE000A5E70225A3E70225A1E700259FE7102517
:102DF0009DE710259BE7082D00F20481DFE815F020
:102E00000C0002012700020124000201020102015C
:102E100009004FF4004004E0FFF74CF9002800F0EF
:102E2000F380626802EB4203834200F2EF80B0EB72
:102E3000023F00F2ED80082D44D8DFE805F00A4398
:102E40001F432A4343433800FEF7E6FCE6E74A48BF
:102E5000E7E7FFF72FF90023070E06026268500824
:102E6000301847F10001FDF79FFEA0F54072434B7B
:102E70009A4200F2CF802368D86093E0560800257C
:102E80002B463F480021801941F10001FDF78CFEDF
:102E9000EBE7FEF7C1FC0025070E0602626850084A
:102EA0002B46301847F10001FDF77EFEDDE75008A4
:102EB00000252B4610F500002CBF01210021FDF755
:102EC00073FED2E701250020CFE7082D49D8DFE8BF
:102ED00005F0051E2948344848483F00FFF7EAF846
:102EE0006268530803EB4003B3FBF2F39BB2A3F118
:102EF00010014FF6EF72914200F28E809AB222F0EA
:102F00000F02C3F3420313432268D3604AE0FFF782
:102F1000E3F86268530803EB4003B3FBF2F39BB2A0
:102F20000025E4E76268530803F1F47303F5904366
:102F3000B3FBF2F39BB20025D9E7FEF76DFC6268A4
:102F4000530803EB4003B3FBF2F39BB20025CEE73B
:102F50006268530803F58033B3FBF2F39BB200259C
:102F6000C5E701250023C2E7F369FFEF00800040B9
:102F700000380140004400400024F400FFFC0F0032
:102F8000000024F4FFF796F8626800EB5203B3FBED
:102F9000F2F39BB2A3F110014FF6EF7291423DD8CC
:102FA0002268D3600023236663662846F8BDFFF7D6
:102FB00093F8626800EB5203B3FBF2F39BB2002577
:102FC000E8E76268530803F5740303F51053B3FB95
:102FD000F2F39BB20025DDE7FEF71EFC626800EB12
:102FE0005203B3FBF2F39BB20025D3E762685308A8
:102FF00003F50043B3FBF2F39BB20025CAE70125BA
:103000000023C7E70125CDE70025CBE70125C9E768
:103010000125C7E70125C5E70125C3E70125C1E76C
:10302000436A13F0010F06D00268536823F400339B
:10303000816A0B435360436A13F0020F06D00268A3
:10304000536823F48033C16A0B435360436A13F01F
:10305000040F06D00268536823F48023016B0B43EE
:103060005360436A13F0080F06D00268536823F4D4
:103070000043416B0B435360436A13F0100F06D0BB
:103080000268936823F48053816B0B439360436A17
:1030900013F0200F06D00268936823F40053C16B2D
:1030A0000B439360436A13F0400F0AD002685368E1
:1030B00023F48013016C0B435360036CB3F5801F42
:1030C0000BD0436A13F0800F06D00268536823F4D4
:1030D0000023816C0B43536070470268536823F4EC
:1030E000C003416C0B435360EBE72DE9F843054601
:1030F0000F4616469946DDF820802C68E46937EAC9
:1031000004030CBF01240024B4423CD1B8F1FF3FBA
:10311000F3D0FEF71FFBA0EB0900404521D8B8F122
:10312000000F1ED02B681A6812F0040FE5D0DA6980
:1031300012F4006FE1D04FF400621A622A6813683B
:1031400023F4D07313602A68936823F0010393601B
:1031500020236B67AB67EB67002385F87030032093
:1031600012E02A68136823F4D07313602A68936806
:1031700023F00103936020236B67AB67002385F87E
:103180007030032000E00020BDE8F8832DE9F04115
:1031900082B01E46436F202B55D104460D46904603
:1031A000002954D0002A54D090F87030012B52D00E
:1031B000012380F870300023C36721234367FEF7A3
:1031C000C9FA0746A4F85080A4F85280A368B3F562
:1031D000805F05D04FF00008002384F8703014E0C1
:1031E000236913B14FF00008F6E7A8460025F3E77E
:1031F00038F8023B2268C3F308031385B4F8522061
:1032000092B2013A92B2A4F85220B4F852309BB272
:1032100073B100963B46002280212046FFF765FFF0
:10322000D8B9002DE4D0236815F8012B1A85E5E7FD
:1032300000963B46002240212046FFF756FF70B91A
:103240002023636700E0022002B0BDE8F081012086
:10325000FAE70120F8E70220F6E70320F4E703206D
:10326000F2E730B583B004460023C367FEF772FA75
:10327000054623681B6813F0080F0CD123681B68F0
:1032800013F0040F15D120236367A367002084F88F
:10329000700003B030BD6FF07E4300930346002200
:1032A0004FF400112046FFF720FF0028E6D003204E
:1032B000EFE76FF07E4300932B4600224FF480012E
:1032C0002046FFF712FF0028DDD00320E1E768B3B6
:1032D00010B50446436F03B3242363672268136861
:1032E00023F0010313602046FFF7F4FC012813D0FC
:1032F000636ABBB92268536823F490435360226821
:10330000936823F02A0393602268136843F0010353
:1033100013602046FFF7A5FF10BD80F87030FEF760
:1033200095F9D9E72046FFF77BFEE3E701207047D8
:1033300070B110B50446037933B102232371002024
:1033400020610123237110BD4371FEF7FDF8F4E7FE
:10335000012070474379012B2AD030B401234371F7
:10336000022202710468226801F01005AB40134389
:10337000236089B90268136803F03C03042B06D06C
:103380000123037100234371184630BC7047536812
:1033900043F001035360F3E70268136803F470130A
:1033A000B3F5802FECD1536843F002035360E7E795
:1033B0000220704710B483B000240194006801908B
:1033C00051B901990A4408320192019A1360002010
:1033D00003B05DF8044B704701990A44143201921E
:1033E000F3E7F8B54379012B00F0948004460D46CD
:1033F000164601234371022303710B68042B32D05C
:103400002B69012B79D02068C36B06F010020721CD
:10341000914023EA01012B68AE683343EE683343E1
:1034200093400B43C363206803684FF4804191408D
:1034300023EA010303602068036840F6FC719140B1
:1034400023EA01016B6893400B4303602068036823
:10345000C02101FA02F223EA020202600123237171
:1034600000206071F8BD72B123685B6B002B25DA18
:10347000FEF770F90128F7D9236943F008032361A7
:1034800003202071EEE7FEF765F9074623685B6BC2
:1034900013F4004F0BD0FEF75DF9C01B0128F5D9DE
:1034A000236943F00803236103202071DAE7012038
:1034B000FEF756F92368AA691A6405E00120FEF7B1
:1034C0004FF92368AA695A642068826C06F01001DB
:1034D00040F2FF338B4022EA0302EB698B401A4330
:1034E00082642068C36CFF228A4023EA02032A6AAE
:1034F00002FA01F10B43C36482E721688A6B06F08C
:1035000010001F23834022EA03026B6983401343A8
:103510008B6378E70220A5E730B583B000230193E1
:10352000002800F0D8800446436D03B323689A68EE
:1035300012F0005F05D09A6822F0204222F03F028C
:103540009A602268936813F0805F1DD1936823F01E
:10355000104323F03F0343F0805393605F4B1B689D
:103560009B095F4AA2FB03239B09019309E0FDF736
:10357000B1FF0023A36584F85030D7E7019B013BDE
:103580000193019B002BF9D12268936813F0805FAF
:1035900009D1636D43F010036365A36D43F001032C
:1035A000A365012000E00020936813F0040300D01D
:1035B0000123616D11F0100F40F08680002B40F068
:1035C0008380636D23F4817343F002036365936822
:1035D00013F0010F0BD1434B9B6813F0010F06D181
:1035E000636841498A6822F47C1213438B60627ECF
:1035F000636B43EA4233E2681343A268134394F8CF
:10360000202043EA0243012A3ED0A26A22B102F4FA
:103610007072E16A0A4313432168CD68334A2A4035
:103620001343CB6021688B6813F0040300D001239F
:103630008A6812F0080200D00122B3B9AAB9227E2A
:1036400094F830305B0043EA8232CB6823F4804345
:1036500023F002031343CB6094F83830012B18D0C9
:103660002268136923F0010313612369012B22D01F
:103670002268136B23F00F031363636D23F00303BE
:1036800043F00103636524E0626A013A43EA42437E
:10369000BBE721680B6923F4FF6323F00403E26BAB
:1036A000256C2A43656C2A43A56C2A43134343F0D7
:1036B00001030B61D9E721680B6B23F00F03E2696B
:1036C000013A13430B63D8E7636D43F0100363655E
:1036D000012003B030BD0120FBE700BF080000203F
:1036E000632D3E05000004500003045007C0F0FFA6
:1036F0000368186C70477047704770B504460368DC
:103700001E685D6816F0020F10D015F0020F0DD084
:10371000436D13F0100F03D1436D43F40063436511
:10372000204600F0E5FB236802221A6016F0040F21
:1037300002D015F0040F05D116F0080F3AD015F09D
:10374000080F37D0636D13F0100F03D1636D43F48E
:10375000007363652368DA6812F4406F24D1DA6875
:1037600012F4005F20D11A6812F0080F1CD09A687A
:1037700012F0040F10D15A6822F00C025A60636DE7
:1037800023F480736365636D13F4805F0CD1636D04
:1037900043F00103636507E0636D43F01003636565
:1037A000A36D43F00103A3652046FDF749FE23689E
:1037B0000C221A6016F0200F02D015F0200F05D150
:1037C00016F0400F4CD015F0400F49D0636D13F048
:1037D000100F03D1636D43F4005363652368DA6C03
:1037E00012F0C00F2AD10121DA6812F4406F27D1FC
:1037F0000120DA6831B912F0007F2BD150B312F4F6
:10380000005F27D1196811F0400F23D012F4001F78
:1038100020D19A6812F0080F14D15A6822F0600281
:103820005A60636D23F480536365636D13F4807F86
:1038300010D1636D43F0010363650BE00021D3E712
:103840000020D6E7636D43F010036365A36D43F07A
:103850000103A365204600F047FB236860221A603D
:1038600016F0800F02D015F0800F2DD116F4807F56
:1038700002D015F4807F32D116F4007F02D015F407
:10388000007F38D116F0100F17D015F0100F14D09C
:10389000636B23B12368DB6813F0010F0AD0636DFB
:1038A00043F480636365A36D43F00203A365204680
:1038B000FFF722FF236810221A6016F4806F02D0EF
:1038C00015F4806F23D170BD636D43F4803363655D
:1038D0002046FFF710FF236880221A60C6E7636D59
:1038E00043F400336365204600F000FB23684FF487
:1038F00080721A60C0E7636D43F4802363652046DD
:1039000000F0F5FA23684FF400721A60BAE7636DAD
:1039100043F480436365A36D43F00803A365236804
:103920004FF480621A60204600F0DFFACBE7000017
:10393000F0B482B00022019290F85020012A00F0E9
:103940000C820346012280F850200268926812F02F
:10395000040F0AD0426D42F020024265012000228D
:1039600083F8502002B0F0BC70474A68052A09D895
:10397000023A032A00F28D80DFE802F00281848798
:103980000C224A601E684D680C6830362A0A920084
:1039900002F00C02B05805F01F051F27AF4020EAC7
:1039A0000700C4F38464AC402043B0501C68A26894
:1039B00012F0040200D00122A06810F0080000D02C
:1039C000012052BB48BB0E688D681434720E920001
:1039D00002F00402A058C6F304560727B74020EAB5
:1039E0000700B5402843A0504C691868C268C2F36C
:1039F000C102520004FA02F20D69042D4CD00E6887
:103A0000603050F82570B44C3C4006F0F846324324
:103A1000144344F0004440F825401868826812F0CE
:103A2000010F15D10A68CD68D0F8B040C2F3120674
:103A300024EA060405F01806A84DF5402A40C2F312
:103A400012022243C0F8B020C868A54A90427ED036
:103A50000A68A4490A4200F07C81A349896801F000
:103A6000E074A248824200F01081A148824200F036
:103A70004981A048824200F0598100206FE712225C
:103A80004A607FE718224A607CE74FF480724A6000
:103A900078E706224A6075E7026E046EC4F3846418
:103AA0000A68C2F312057DBBC2F38462944230D02F
:103AB0001C68626E606EC0F384600A68C2F312050F
:103AC00065BBC2F3846290422DD01C68A26EA06ECA
:103AD000C0F384600A68C2F312054DBBC2F384626E
:103AE00090422AD01C68E26EE06EC0F384600A68DF
:103AF000C2F3120535BBC2F3846290428DD1E26EEF
:103B000022F00042E26688E792FAA2F2B2FA82F26A
:103B1000CCE7026E22F000420266C9E792FAA2F2F6
:103B2000B2FA82F2CFE7626E22F000426266CCE720
:103B300092FAA2F2B2FA82F2D2E7A26E22F0004228
:103B4000A266CFE792FAA2F2B2FA82F2D5E71D6836
:103B50000A68C2F3120696BB900E013000F01F00F7
:103B600009288CBF00200120002852D09EBB940E53
:103B70000134A40604F0F844B6BB900E013000F006
:103B80001F070120B8400443C6BB920E013202F069
:103B90001F0202EB4202120522438C681435500EBC
:103BA000800000F004002E58C2F30452072797400B
:103BB00026EA070604FA02F232432A5048E792FA4C
:103BC000A2F0B0FA80F0013000F01F0009288CBF8D
:103BD00000200120C8E792FAA2F4B4FA84F4013478
:103BE000A40604F0F844C7E792FAA2F0B0FA80F015
:103BF000013000F01F070120B840C4E792FAA2F29A
:103C0000B2FA82F2013202F01F0202EB4202120506
:103C1000C2E7CEB9940E0134A40604F0F844E6B924
:103C2000900E013000F01F070120B8400443F6B9A0
:103C3000900E013000F01F0000EB40021E3A12050A
:103C400042F000722243A8E792FAA2F4B4FA84F494
:103C50000134A40604F0F844E1E792FAA2F0B0FAC5
:103C600080F0013000F01F070120B840DEE792FA33
:103C7000A2F0B0FA80F0013000F01F0000EB40022B
:103C80001E3A120542F00072DCE711F4000F7FF4D7
:103C9000ECAE1968184A914201D000205FE644F466
:103CA00000021148816821F0E0710A438260134AE2
:103CB000126892091249A1FB0212920902EB420218
:103CC0009200019202E0019A013A0192019A002ABF
:103CD000F9D1002043E600BF00F0FF03FFFF07001B
:103CE00000007F400000088000030450000052C71D
:103CF000000084CB01000080000004500800002078
:103D0000632D3E0511F0807F7FF4B3AE1968144A2D
:103D1000914201D0002022E644F08072114881686F
:103D200021F0E0710A438260002018E611F4800F50
:103D300011D119680A4A914201D000200FE644F4DB
:103D400080020848816821F0E0710A438260002007
:103D500005E6002003E6002001E6022002E600BF9F
:103D6000000004500003045038B503689A6812F04C
:103D7000010F3DD1044699681E4A114209D0436D96
:103D800043F010034365836D43F001038365012015
:103D90002FE09A6822F0004222F03F0242F0010236
:103DA0009A60FDF7D7FC054604E0FDF7D3FC431B02
:103DB000022B11D823681A6812F0010F16D19A68E5
:103DC00012F0010FF1D19A6822F0004222F03F0276
:103DD00042F001029A60E8E7636D43F01003636507
:103DE000A36D43F00103A365012002E0002000E081
:103DF000002038BD3F00008003689B6813F0040F6B
:103E00006ED110B5044690F85030012B6AD00123D2
:103E100080F85030FFF7A8FF00285DD1636D23F4D0
:103E2000706323F0010343F480736365636D13F4DF
:103E3000805F3ED0A36D23F00603A36523681C2298
:103E40001A60002384F850302268536823F01C0362
:103E500053606369082B2FD02268536843F0040332
:103E60005360636B23B92268536843F010035360B7
:103E70002368DA6812F0007F11D0626D22F440529C
:103E800042F4805262656269082A1BD05A6822F0A7
:103E900040025A602268536843F02003536022684E
:103EA000936823F0004323F03F0343F0040393603F
:103EB00010BD0023A365C1E72268536843F00803DF
:103EC0005360CEE75A6822F020025A602268536895
:103ED00043F040035360E2E7002384F85030E7E703
:103EE000022070470220E3E7704770477047704731
:103EF00070470000002800F0858010B5044690F857
:103F00003230DBB2052B7FD090F83230DBB2022B9F
:103F10007CD090F8323090F832300BB980F83130E4
:103F20002046FDF743FB2268136823F48053136097
:103F3000E368082B27D0E3680C2B37D0E3687BB904
:103F400021680A6822F48E4222F00E02A068034320
:103F50002069034360690343E069034313430B6033
:103F6000E369B3F5804F30D0294A136823F000434A
:103F700061680B43136094F8323013B9012384F85D
:103F80003230002010BD21680A6822F48E4222F0EF
:103F90003E02A0680343A0690343206903436069AC
:103FA0000343E069034313430B60C4E721680A68D5
:103FB00022F4884222F00E02A068034360690343A2
:103FC000E069034313430B60B8E7A368022B0CD0EE
:103FD000226A636A43EA022221684B6823F4F85399
:103FE00023F01F0313434B60BEE7A26AE36A43EA70
:103FF000022221688B6823F4F85323F01F03134334
:104000008B60B1E7012070470120BBE70120B9E7D1
:1040100000780040A8B190F83230DBB2052B12D006
:1040200090F83230DBB2012B01D0012070470168DB
:104030000B6843F001030B60042380F8323000204A
:10404000704701207047012070470000DFF834D02E
:10405000002103E00C4B5B58435004310B480C4BE0
:1040600042189A42F6D30B4A02E0002342F8043B7E
:10407000094B9A42F9D3FEF709FE00F019F8FDF753
:104080004FF8FEE700000120806F000800000020CC
:10409000E0010020E0010020FC030020FEE700001A
:1040A000024B0A460146186800F02EB80C000020AA
:1040B00070B50D4D0D4C641BA4100026A64209D10D
:1040C0000B4D0C4C02F000FC641BA4100026A64211
:1040D00005D170BD55F8043B98470136EEE755F819
:1040E000043B98470136F2E7706F0008706F0008D4
:1040F000706F0008746F000802440346934200D1B9
:10410000704703F8011BF9E713B54A4311460192C2
:1041100000F00AF8044618B1019A0021FFF7ECFFFD
:10412000204602B010BD0000F8B5CD1C25F00305F7
:1041300008350C2D38BF0C25002D064601DBA942A1
:1041400003D90C2333600020F8BD01F021FA214986
:104150000A6814469CB9204F3B6823B92146304673
:1041600000F080FB38602946304600F07BFB431CA2
:1041700023D10C233360304601F010FAE3E72368C3
:104180005B1B17D40B2B03D923601C44256004E070
:104190006368A2420CBF0B605360304601F0FEF929
:1041A00004F10B00231D20F00700C21ACCD01B1A0B
:1041B000A350C9E722466468CCE7C41C24F003047A
:1041C000A042E3D0211A304600F04CFB0130DDD193
:1041D000CFE700BFFC010020000200202DE9FF47CF
:1041E00055EC104B002D0E4619462B46BBBF05F172
:1041F00000431D4600232D230B700D9BDDF830A0DE
:10420000914623F02008BCBF22461446B8F1460F61
:1042100005D0B8F1450F00D10136022100E003219D
:1042200003AB019302AB009345EC104B534632466F
:1042300000F0B6FBB8F1470F074602D119F0010FA5
:1042400022D0B8F1460F07EB060910D13B78302B8E
:104250000AD10022002320462946FCF7E5FB18B9C5
:10426000C6F10106CAF80060DAF80030994400226D
:10427000002320462946FCF7D7FB08B1CDF80C9067
:104280003022039B4B4507D3039B0E9ADB1B38461A
:10429000136004B0BDE8F087591C03911A70F0E771
:1042A000F7B503460029B8BF494203F8022BB4BF53
:1042B0002D222B22092942702ADD0DF10704A44684
:1042C0000A27A6460A4691FBF7F607FB1615303576
:1042D000632A04F1FF340EF8015C3146F1DC303121
:1042E000AEF1020504F8011C441C294661450AD3BD
:1042F0000DF10902A2EB0E02654588BF00221344AE
:10430000181A03B0F0BD11F8012B04F8012FEDE7E6
:10431000302330318370C170031DF1E72DE9F04F78
:104320002DED028B8DB00C46DDF8608016461F46E1
:10433000054601F013F9D0F800A05046FBF748FFFE
:1043400000230A9323680593D8F8003094F818B036
:10435000073323F0070303F10802C8F80020D3E96C
:104360000023C4E91223D4E9128929F000430793FA
:10437000CDF8188008EE100A9F4BDDE906014FF0DA
:10438000FF32FCF783FB88BBDDE906019A4B4FF057
:10439000FF32FCF75DFB48BB002200234046494644
:1043A000FCF74CFB10B12D2384F84330934B944819
:1043B000BBF1470F94BF9846804603232361059BBA
:1043C00023F0040222604FF00009009733460BAA45
:1043D0002146284600F0D8F9013040F090804FF097
:1043E000FF300DB0BDEC028BBDE8F08F42464B466E
:1043F00040464946FCF74AFB40B14B46002BBCBF48
:104400002D2384F843307F487F4BD1E763680BF05E
:10441000DF0206925A1C3FD106236360059B616848
:1044200043F48062002303930AABCDE901B309ABE7
:1044300049EC108B009322600DF123032846FFF70F
:10444000CDFE069B0999472B804608D1C81C02DB8C
:104450006368994241DDABF1020B5FFA8BFBBBF164
:10446000650F20D801395A4604F150000991FFF731
:1044700017FF0A9A1318012A8146236102DC226879
:10448000D20701D5013323619DF82330002B9CD046
:104490002D2384F8433098E7069A472ABED1002B93
:1044A000BCD10123B9E7BBF1660F18D100296368BD
:1044B0000BDD216113B92268D00702D501330B440B
:1044C0002361A1654FF00009DEE713B92268D20726
:1044D00001D50233F4E70123F2E74FF0670B0A9BA3
:1044E000994205DB23682161D807EAD54B1CE7E731
:1044F0000029D4BFC1F1020201221344E0E723687E
:104500005A0507D42369424631462846B847013048
:104510002CD164E7BBF1650F40F2E080D4E91201D1
:1045200000220023FCF780FA002834D0374A012308
:1045300031462846B84701303FF451AFDDE9092341
:104540009A4202DB2368D80710D518EE103A52467B
:1045500031462846B84701303FF441AF4FF00008DC
:1045600004F11A090A9B013B434509DC23689B07B8
:1045700000F10581E0680B9B9842B8BF184630E710
:1045800001234A4631462846B84701303FF427AF59
:1045900008F10108E6E7099B002B39DC1B4A0123DF
:1045A00031462846B84701303FF419AFDDE9092309
:1045B000134302D12368D907D8D518EE103A5246D2
:1045C00031462846B84701303FF409AF4FF00009A3
:1045D00004F11A0A099B5B424B4501DC0A9B92E7F6
:1045E0000123524631462846B84701303FF4F7AE22
:1045F00009F10109EEE700BFFFFFEF7F70690008D6
:10460000746900087C6900087869000880690008FE
:104610000A9AA36D9A42A8BF1A46002A914637DC2F
:104620004FF0000B29EAE97904F11A02A36D059312
:10463000A3EB09035B4533DCDDE909239A423BDB4D
:104640002368DA0738D40A9A059B0999D31AA2EB92
:1046500001099945A8BF9946B9F1000F35DC4FF023
:10466000000829EAE97904F11A0ADDE909239B1A0D
:10467000A3EB090343457FF779AF01235246314647
:104680002846B84701303FF4AAAE08F10108ECE72C
:104690001346314642462846B8470130C0D19EE60F
:1046A0000123314628460592B84701303FF497AEC2
:1046B000059A0BF1010BB9E718EE103A5246314654
:1046C0002846B8470130BED189E6059A4B46424498
:1046D00031462846B8470130C1D180E60A9A012AFE
:1046E00001DCDB0738D50123424631462846B8476E
:1046F00001303FF474AE18EE103A52463146284667
:10470000B84701303FF46BAED4E912010022002318
:10471000FCF78AF9D8B90A9B08F10102013B31463E
:104720002846B84701300ED159E60123524631469A
:104730002846B84701303FF452AE08F101080A9B01
:10474000013B4345F1DC4B4604F15002DCE64FF0FF
:10475000000804F11A0AF2E701234246DFE70123C9
:104760004A4631462846B84701303FF438AE08F192
:104770000108E3680B995B1A4345F0DCFAE64FF059
:10478000000804F11909F4E72DE9F04716469946A7
:104790008A680B69DDF820809342B8BF1346336006
:1047A00091F8432007460C460AB101333360236871
:1047B000990642BF336802333360256815F0060559
:1047C00006D104F1190AE36832689B1AAB4226DC71
:1047D00094F84320131E226818BF012392062BD49D
:1047E00004F1430249463846C04701301ED02368D1
:1047F000E568326803F00603042B08BFAD1AA3680E
:1048000022690CBF25EAE57500259342C4BF9B1AB7
:10481000ED1800261A34B5421AD1002008E0012311
:10482000524649463846C047013003D14FF0FF3069
:10483000BDE8F0870135C6E7E1185A1C302081F841
:104840004300224494F8451082F843100233C7E72E
:104850000123224649463846C0470130E6D001369A
:10486000D9E7000038B5064D0023044608462B6002
:1048700002F01CF8431C02D12B6803B1236038BD41
:10488000EC0300202DE9F74F03690C69A3420746AA
:10489000C0F28180013C01F1140800F1140505EB20
:1048A0008403019358F8243055F8242001339A42A8
:1048B0004FEA840B08EB8409B2FBF3F631D34FF0D7
:1048C000000E4046AC46F24650F8042B93B206FB6D
:1048D00003E34FEA134E9BB2AAEB0303120CDCF87E
:1048E00000A006FB02E213FA8AF34FEA124E1FFA07
:1048F00082FADCF80020CAEB124202EB23429BB2A0
:1049000043EA024381454CF8043B4FEA224ADBD29A
:1049100055F80B302BB9019B043B9D421A462ED310
:104920003C61384601F06BF8002824DB013628464C
:104930004FF0000C58F8042BD0F800E093B2ACEB29
:104940000303120C13FA8EF3C2EB1E4202EB234256
:104950009BB243EA0243C14540F8043B4FEA224C74
:10496000E8D255F8242005EB840322B9043B9D428C
:104970001A460AD33C61304603B0BDE8F08F126896
:10498000043B002ACCD1013CC7E71268043B002A53
:10499000F0D1013CEBE70020EEE700000000000052
:1049A0002DE9F04F2DED028B57EC106B95B0456A59
:1049B000DDF880800591CDE90267044609920F93E6
:1049C0003DB9102000F0CEFDC0E9015560620560E0
:1049D000C560636A196851B15A684A6001239340FF
:1049E0008B60204600F014FE636A00221A603B1EB2
:1049F000B9BF23F0004303930023C8F80030DDF86B
:104A00000C90B74BBCBF0122C8F8002033EA090361
:104A10001BD10F9A42F20F731360C9F31303334390
:104A200000F07585219B63B9AE4B25E0AE4B00933A
:104A30000833219A1360009815B0BDEC028BBDE8D5
:104A4000F08FA84B00930333F3E79DED027B002228
:104A500051EC170B00238DED0A7BFBF7E5FF804639
:104A600060B10F9A01231360219B002B00F04C854D
:104A70009E4B219A1360013B0093DCE79DED0A0BEE
:104A800012AA13A9204601F04CF8C9F30A55824630
:104A9000002D7ED00B9BCDF84080C3F31303DDE9DE
:104AA0000A6743F07F5747F44017A5F2FF35904B54
:104AB000002230463946FBF797FB83A3D3E9002356
:104AC000FBF74AFD82A3D3E90023FBF78FFB0646E1
:104AD00028460F46FBF7D6FC7FA3D3E90023FBF75C
:104AE0003BFD02460B4630463946FBF77FFB064648
:104AF0000F46FBF7E1FF002281460023304639468E
:104B0000FBF79CFF48B14846FBF7BCFC32463B46EE
:104B1000FBF78AFF08B909F1FF39B9F1160F56D82A
:104B2000744B03EBC903D3E90023DDE90A01FBF76A
:104B300085FF00284DD009F1FF3900230E93129B09
:104B40005D1B6B1E049343BF0023C5F10108049352
:104B50004FF00008B9F1000F3DDB049BCDF8349015
:104B60004B44049300230693059B092B00F29A8083
:104B7000052BC4BF043B0593059BA3F10203CCBFE7
:104B800000250125032B00F29980DFE803F02C7D3E
:104B90007B89DDE912531D4405F23243202BC1BF4E
:104BA000C3F1400305F2124009FA03F326FA00F0BC
:104BB000DABFC3F1200306FA03F01843FBF752FCF7
:104BC00001230646A1F1F877013D10936FE7012319
:104BD000B4E70E90B3E7C9F1000306930023A8EBF6
:104BE00009080D93C0E700230893099B002B00F3ED
:104BF00085804FF0010BCDF804B05B46CDF824B0B2
:104C0000666A00227260042202F114009842716800
:104C10007AD9204600F0C8FC636A30601B680093B4
:104C2000019B0E2B00F2F580002D00F0F280B9F10F
:104C3000000F7DDD2F4A09F00F0302EBC30393ED54
:104C4000007B19F4807F4FEA2917B0EE478AF0EE17
:104C5000678A5DD0284BDDE90A01D3E90823FBF719
:104C6000A5FDCDE9020107F00F070325224E002F15
:104C700050D1DDE9020153EC182BFBF797FDCDE98C
:104C800002016FE00123AFE700230893099B09EBC2
:104C9000030B0BF10103012B0193B8BF0123AFE715
:104CA0000123F2E701250023059308954FF0FF3B10
:104CB0000022CDF804B012230992A1E70123089342
:104CC000F4E700BFAFF3008061436F63A787D23F73
:104CD000B3C8608B288AC63FFB799F501344D33FEB
:104CE0000000F07F8B690008826900088169000874
:104CF0000000F83FB869000890690008DDF824B0AA
:104D0000CDF804B05B467BE70131716052007BE770
:104D10000225ABE7F90708D551EC180BD6E90023BB
:104D2000FBF71AFC41EC180B01357F1008369EE7A3
:104D300000F0AB80C9F10006AA4BAB4F06F00F02A2
:104D400003EBC203D3E90023DDE90A01FBF704FC0E
:104D5000CDE90201361100230225002E40F08A80A1
:104D6000002B8CD10E9B002B00F09180DDE90267B7
:104D70009E4B002230463946FBF760FE002800F0CB
:104D80008680019B002B00F08280BBF1000F3CDD90
:104D900009F1FF3307930022954B30463946FBF764
:104DA000DBFBCDE902010135CDF830B0DDE902676A
:104DB0002846FBF767FB32463B46FBF7CDFB8D4BA6
:104DC0000022FBF713FAA1F15073CDE9020103931E
:104DD0000C9B002B60D1884B002230463946FBF7F4
:104DE00003FADDE9022306460F46FBF745FE0028DD
:104DF00040F09982DDE90221304601F10043394655
:104E0000FBF71CFE002840F08B82DDE90A23CDE988
:104E10000223139B002BC0F25B81B9F10E0F00F34C
:104E20005781704B03EBC90393ED007B099BB0EEF8
:104E3000478AF0EE678A002B80F2E280019B002B0C
:104E400000F3DE8040F06C826B4B51EC170B0022BC
:104E5000FBF782FBDDE90223FBF704FE019E3746E8
:104E6000002840F04282009D312305F8013B09F102
:104E700001093EE2F20705D5D7E90023FBF76CFBF9
:104E8000013501237610083767E702256AE7019BA1
:104E9000CDF81C900C9389E700990C980C9A514B13
:104EA0009DED027B014402910899B0EE478AF0EE35
:104EB000678A03EBC20353E90223002945D04F4917
:104EC0000020FBF773FC53EC182BFBF78DF9009DCA
:104ED00041EC180B39463046FBF7EEFD0C90FBF722
:104EE000D1FA02460B4630463946FBF77DF90C9B5A
:104EF000303305F8013B53EC182B06460F46FBF701
:104F00009DFD002865D132463B4638490020FBF71D
:104F10006BF953EC182BFBF791FD002840F0B8809B
:104F2000029B9D423FF471AF314B51EC180B0022B4
:104F3000FBF712FB2E4B41EC180B00223046394692
:104F4000FBF70AFB06460F46C4E751EC170BFBF7CD
:104F500003FB029B009D0C9341EC180B3946304635
:104F6000FBF7AAFD1190FBF78DFA02460B4630467F
:104F70003946FBF739F9119B303305F8013B029BA9
:104F80009D4206460F464FF0000225D11B4B51ECC7
:104F9000180BFBF72BF902460B4630463946FBF758
:104FA0006BFD002874D153EC182B14490020FBF73B
:104FB0001BF902460B4630463946FBF73FFD0028F9
:104FC0003FF423AF0C9D6B1E0C9315F8013C302B66
:104FD000F8D0DDF81C9049E0054BFBF7BDFA06461A
:104FE0000F46BBE7B8690008906900080000F03F71
:104FF0000000244000001C40000014400000E03F7E
:10500000DDE90267009D53EC182B30463946FBF76B
:10501000CDFBFBF751FD8046FBF734FA53EC182B20
:10502000FBF79AFA02460B463046394608F130063D
:10503000FBF7DAF805F8016B009E019FAE1BB74243
:1050400002460B4637D1FBF7D1F853EC182B064636
:105050000F46FBF711FDC8B953EC182B3046394603
:10506000FBF7E2FC10B118F0010F0FD120465146BA
:1050700000F0CEFA00232B700F9B09F1010018609D
:10508000219B002B3FF4D7AC1D60D4E4CDF81C90DD
:105090002B461D4613F8012D392A08D1009A9A4251
:1050A000F7D1079A00990132079230220A701A78D4
:1050B00001321A708DE79E4B0022FBF74DFA002259
:1050C000002306460F46FBF7AFFC00289BD0CDE738
:1050D000089A002A00F0C680059A012A00F3AA80E7
:1050E000109A002A00F0A28003F23343069E454640
:1050F000049A01211A4420469844049200F02DFBA2
:105100000746002D0BDD049B002B08DDAB42049A03
:10511000A8BF2B46A8EB0308ED1AD31A0493069BED
:10512000FBB1089B002B00F0A180002E11DD394659
:105130003246204600F0B6FB52460146074620465E
:1051400000F014FB51460790204600F061FA079BDF
:105150009A46069B9A1B04D05146204600F0A2FBBB
:1051600082460121204600F0F8FA0D9B002B0646EE
:105170007EDD1A460146204600F094FB059B012B7C
:10518000064678DD00230693336906EB830318692E
:1051900000F093FAC0F12000049B184410F01F00A7
:1051A00000F08880C0F12003042B40F38180C0F11F
:1051B0001C00049B0344804405440493B8F1000F91
:1051C00005DD51464246204600F0BAFB8246049B6C
:1051D000002B05DD31461A46204600F0B1FB06469D
:1051E0000E9B002B68D03146504600F008FC00288A
:1051F00062DA002351460A22204600F020FA089B7A
:1052000009F1FF398246002B00F0888139460023DE
:105210000A22204600F013FABBF1000F074600F304
:105220008F80059B022B40F38B804DE0129BC3F1D6
:1052300036035BE7019B5E1E069BB342BFBF069B26
:105240000696F21A0D9BB6BF9B189E1B0D93019BF1
:10525000B8BF0026002BB5BFA8EB0305019B0023B8
:10526000454645E7069E089F45464AE7069A73E786
:10527000059B012B18DC029BB3B9039BC3F31303FB
:10528000A3B9039B23F000431B0D1B052BB1049B0B
:105290000133049308F10108012306930D9B002BB1
:1052A0007FF472AF012077E70023F6E7029BF4E773
:1052B00084D018461C307CE7019B002B3ADC059B10
:1052C000022B37DDDDF804B0BBF1000F0DD1314604
:1052D0005B460522204600F0B2F9014606465046DC
:1052E00000F08DFB00283FF7BEAD099B009D6FEAE3
:1052F00003094FF000083146204600F089F9002FDD
:105300003FF4B4AEB8F1000F05D0B84503D0414624
:10531000204600F07DF93946204600F079F9A5E6EF
:1053200000263746E1E70C9EDDF81C9037469AE5EB
:1053300000002440089BDDF804B0002B00F0F5804D
:10534000002D05DD39462A46204600F0F9FA0746C9
:10535000069B002B55D07968204600F025F93A6964
:1053600002320546920007F10C010C3000F002F900
:1053700001222946204600F0E3FA009B0133019305
:10538000009B5B440793029B03F00103B84606931E
:105390000746019B3146504603F1FF3BFFF772FA87
:1053A00003463033029041465046089300F027FBF5
:1053B0003A4604903146204600F03DFBC268089B07
:1053C000054602BB0146504600F019FB089B024609
:1053D00029462046CDE9083200F01AF9059B099AC2
:1053E000019D43EA0201069B0B43089B0DD1392B1B
:1053F00027D0049A002A01DD029B31338BF800305C
:1054000079E73846B9E70122E2E70499002904DB8D
:10541000059801430698014320D1002AEEDD51464C
:1054200001222046019300F08BFA3146824600F0BB
:10543000E6FA0028019B02DCE0D1DA07DED5392B41
:10544000DAD139238BF800302B461D46013B15F885
:10545000012C392A50D001321A704CE7002A03DDA2
:10546000392BEED00133C9E7019A079902F8013CC4
:105470008A422AD0514600230A22204600F0DFF853
:10548000B84582464FF000034FF00A0241462046DD
:1054900007D100F0D4F880460746019B0133019301
:1054A00077E700F0CCF83946804600230A222046F0
:1054B00000F0C5F80746F0E7BBF1000F009ACCBF3B
:1054C0005D46012515444FF0000851460122204653
:1054D000019300F035FA3146824600F090FA002838
:1054E000B2DC02D1019BDB07AED42B461D4613F87C
:1054F000012D302AFAD0FEE6009A9A42A5D1312336
:1055000009F101091370F6E6124BFFF7B5BA219BBA
:10551000002B7FF48BAA104BFFF7AEBABBF1000F44
:1055200003DC059B022B3FF7CFAE009D3146504672
:10553000FFF7A8F900F1300305F8013B009AAA1A19
:105540009345B9DD514600230A22204600F077F842
:105550008246EBE7806900088269000800487047CE
:1055600060010020024B01461868FEF7DDBD00BF58
:105570000C0000200A44914200F1FF3300D1704733
:1055800010B511F8014B03F8014F9142F9D110BD4C
:10559000014800F016BB00BFF4030020014800F0F2
:1055A00011BB00BFF403002070B5466A04460D46E7
:1055B0003EB91020FFF7D6FFC0E9016660620660C1
:1055C000C660666AF36883B1636ADB6853F82500D6
:1055D000B8B9012101FA05F6721D92002046FEF7C6
:1055E00093FD60B1C0E901560EE02122042120465E
:1055F000FEF78AFD636AF060DB68002BE4D10020CF
:1056000070BD026843F825200023C0E90333F7E7A3
:1056100070B5466A05460C463EB91020FFF7A2FF5A
:10562000C0E9016668620660C6603CB16B6A626888
:10563000DB6853F82210216043F8224070BD2DE949
:10564000F0410E69074698460C4601F1140000230C
:105650000568A9B202FB01814FEA114C2D0C02FB37
:1056600005C589B2013301EB05419E4240F8041B98
:105670004FEA1548ECDCB8F1000F1BD0A368B34229
:1056800012DC616838460131FFF78EFF2269023271
:1056900004F10C01054692000C30FFF76BFF214628
:1056A0003846FFF7B5FF2C4604EB86030136C3F8F6
:1056B000148026612046BDE8F081030C1B04D3B999
:1056C0000004102310F07F4F04BF0002083310F0D5
:1056D000704F04BF0001043310F0404F04BF80003E
:1056E0000233002805DB10F0804F03F1010308BFEF
:1056F0002023184670470023E4E7036813F00702ED
:1057000001460BD0DA0724D4980749BF5B089B08F1
:1057100001200B605CBF0B600220704798B2B0B9EB
:105720001B0C102013F0FF0F04BF1B0A08301A07D0
:1057300004BF1B0904309A0704BF9B080230DA0734
:1057400003D45B0800F1010005D00B6070471046E0
:10575000E8E7002070472020704710B50C46012173
:10576000FFF722FF01224461026110BD2DE9F04FD5
:1057700015460A692B699A42B8BF0B460C46BCBF56
:105780002C461D462769D5F81090A368616807EB81
:105790000906B342B8BF013185B0FFF705FF00F13C
:1057A000140101EB86080B46002243451DD304F18A
:1057B000140305F1140203EB870702EB890302933C
:1057C0003B1B153B23F00303043304F11505AF42E3
:1057D00038BF04230193029B0392934208D8002E02
:1057E0005ADC066105B0BDE8F08F43F8042BDCE716
:1057F000B2F800A0BAF1000F24D004F1140E8946CB
:105800004FF0000C5EF8045BD9F800B0ABB21FFAA1
:105810008BFB0AFB03B34FEA154BD9F800506344E6
:105820004FEA154C0AFB0BC505EB13459BB243EA47
:105830000543774549F8043B4FEA154CE2D8019BF4
:1058400041F803C0039BB3F802900432B9F1000F92
:1058500020D00B6804F1140C8E464FF0000ABCF8FF
:105860000050BEF802B009FB05B5AA449BB243EA5A
:105870000A434EF8043B5CF8043BBEF800501B0C96
:1058800009FB035303EB1A4367454FEA134AE6D873
:10589000019D4B5104319EE758F8043D002BA0D1E7
:1058A000013E9CE72DE9F843154612F00302064637
:1058B0000F4607D0214C013A002354F82220FFF76D
:1058C000BEFE0746AD1035D0746A3CB91020FFF714
:1058D00049FEC0E9014470620460C460D6F82480C7
:1058E000D8F808404CB940F271213046FFF735FF37
:1058F0000023C8F80800044603604FF00009EB07D6
:105900000AD5394622463046FFF730FF39468046F1
:105910003046FFF77DFE47466D100BD0206838B942
:10592000224621463046FFF721FF2060C0F8009054
:105930000446E4E73846BDE8F88300BF806A000803
:105940002DE9F0470C464968236903EB6218A36808
:10595000074691464FEA621A08F10106B3423FDB5F
:105960003846FFF721FE0023054600F1140100F13F
:1059700010021846534536DB20692AEAEA7A04F118
:10598000140319F01F0901EB8A0103EB800C2ED0E0
:10599000C9F1200E8A460022186800FA09F0024375
:1059A0004AF8042B53F8042B9C4522FA0EF2F3D844
:1059B000ACEB0403153B23F00303043304F115009F
:1059C000604588BF0423CA500AB108F10206013EAF
:1059D00038462E612146FFF71BFE2846BDE8F087BA
:1059E00001315B00BAE742F8040F0133C2E7043922
:1059F00053F8042B41F8042F9C45F9D8E7E730B55C
:105A000002690C69121B0ED100F11403143103EB6F
:105A1000840001EB840150F8045D51F8044DA54267
:105A200003D005D30122104630BD8342F3D3FAE7F9
:105A30004FF0FF32F7E72DE9F84F0C4606461146C6
:105A400020461746FFF7DBFF051E08D129463046E2
:105A5000FFF7AAFD0123C0E90435BDE8F88FA4BF14
:105A60003B46274630467968A6BF1C4600250125DF
:105A7000FFF79AFD3E69C560256907F1140104F13D
:105A8000140900F1140E07F1100201EB860C09EB6A
:105A90008505F246002759F8043B52F804BF1FFA67
:105AA00083F817FA8BF71B0CA7EB0808C3EB1B4313
:105AB00003EB28431FFA88F81F144D4548EA0343B7
:105AC0004AF8043BE7D82B1B153B23F003030433B0
:105AD0001534A54238BF0423194473449E460D462D
