:020000040800F2
:10000000008001206D1D0008C9060008CB0600080D
:10001000CD060008CF060008D10600080000000049
:10002000000000000000000000000000D3060008EF
:10003000D506000800000000D7060008D906000811
:10004000BD1D0008BD1D0008BD1D0008BD1D000828
:10005000BD1D0008BD1D0008BD1D0008BD1D000818
:10006000BD1D0008BD1D0008BD1D0008BD1D000808
:10007000BD1D0008BD1D0008BD1D0008BD1D0008F8
:10008000BD1D0008BD1D0008E106000800000000BD
:10009000000000000000000000000000BD1D00087E
:1000A000BD1D0008BD1D0008BD1D0008BD1D0008C8
:1000B00019070008BD1D0008BD1D0008BD1D000872
:1000C000BD1D0008BD1D0008BD1D0008BD1D0008A8
:1000D000BD1D0008BD1D0008BD1D0008000000007A
:1000E000BD1D0008BD1D0008BD1D0008000000006A
:1000F000000000000000000000000000BD1D00081E
:1001000000000000BD1D0008BD1D0008BD1D000849
:1001100000000000000000000000000000000000DF
:10012000BD1D0008BD1D0008BD1D0008BD1D000847
:10013000BD1D0008000000000000000000000000DD
:10014000000000000000000000000000BD1D0008CD
:10015000BD1D0008BD1D0008BD1D0008BD1D000817
:10016000BD1D0008BD1D00080000000000000000CB
:10017000000000000000000000000000000000007F
:1001800000000000BD1D000800000000000000008D
:04019000BD1D000889
:1001940010B5054C237833B9044B13B10448AFF3BD
:1001A40000800123237010BD0C000020000000001B
:1001B400181E000808B5034B1BB103490348AFF3ED
:1001C400008008BD0000000010000020181E000878
:1001D400034613F8012B002AFBD1181A0138704783
:1001E40053B94AB9002908BF00281CBF4FF0FF319A
:1001F4004FF0FF3000F06EB9ADF1080C6DE904CE9C
:1002040000F006F8DDF804E0DDE9022304B07047ED
:100214002DE9F047089D04468C46002B40F083806E
:100224008A42174647D9B2FA82F242B1C2F120009B
:1002340024FA00F09140974040EA010C94404FEAC0
:100244001748230CBCFBF8F61FFA87FE08FB16C1FF
:1002540043EA014306FB0EF1994209D9FB1806F162
:10026400FF3080F01981994240F21681023E3B44EE
:100274005B1AA4B2B3FBF8F008FB103344EA03445E
:1002840000FB0EFEA64509D93C1900F1FF3380F0AE
:100294000581A64540F2028102383C4440EA06400A
:1002A400A4EB0E0400261DB1D4400023C5E900438D
:1002B4003146BDE8F08702B9FFDEB2FA82F2002AC5
:1002C40050D1CB1B4FEA174E1FFA87F80126B3FB18
:1002D400FEFC210C0EFB1C3341EA034108FB0CF32A
:1002E4008B4207D979180CF1FF3002D28B4200F20D
:1002F400E9808446C91AA3B2B1FBFEF00EFB1011CB
:1003040043EA014408FB00F8A04507D93C1900F171
:10031400FF3302D2A04500F2D9801846A4EB0804AA
:1003240040EA0C40BFE78B4209D9002D00F0B180B0
:100334000026C5E9000130463146BDE8F087B3FA2E
:1003440083F6002E4AD18B4202D3824200F2B88057
:10035400841A61EB030101208C46002DA8D0C5E965
:10036400004CA5E7C2F1200320FA03F6974001FAF6
:1003740002F04FEA174ED9403043030CB1FBFEF6AE
:100384001FFA87F80EFB161143EA014306FB08F136
:10039400994204FA02F409D9FB1806F1FF3C80F0F3
:1003A4008D80994240F28A80023E3B445B1A81B2BE
:1003B400B3FBFEF00EFB103341EA034100FB08F3EC
:1003C4008B4207D9791800F1FF3C73D28B4271D963
:1003D40002383944CB1A40EA064678E7C6F1200CC5
:1003E40003FA06F422FA0CF31C4320FA0CF701FA80
:1003F40006F34FEA144E21FA0CF11F433B0CB1FBF8
:10040400FEF91FFA84F80EFB191143EA014109FBB6
:1004140008FA8A4502FA06F200FA06F308D96118C6
:1004240009F1FF3048D28A4546D9A9F1020921448D
:10043400A1EB0A01BFB2B1FBFEF00EFB101147EABB
:10044400014700FB08F8B84507D9E71900F1FF3167
:100454002ED2B8452CD90238274440EA0940A7EBEC
:100464000807A0FB02894F45C64649461AD317D050
:100474005DB1B3EB0E0267EB010707FA0CFCF24027
:100484004CEA0202F740C5E9002700263146BDE8E0
:10049400F0872E4628460BE70646E9E61846FDE6B1
:1004A4004345E5D2B8EB020E69EB04010138DFE7FE
:1004B4000846D2E760468DE78146B9E7664675E7A8
:1004C40030464AE7ACF1020C394413E702383C44A5
:1004D40024E700BF704700BF30B589B000240394FF
:1004E40004940594069407940194134B1A6B42F0F8
:1004F40001021A631A6B02F001020192019A02943A
:100504001A6B42F002021A631B6B03F0020302939C
:10051400029B0A4D22460821284601F061F808236F
:100524000393012304930594069403A9284600F039
:1005340083FF09B030BD00BF003802400004024010
:1005440070B584B0002500950195029503950F4C74
:100554000F4B23606560A56025610126267684F82B
:100564002050E5620B4BA362E560E66184F83050ED
:100574006561204600F01EFA0095019602956946D1
:10058400204600F073FB04B070BD00BF2C000020B7
:10059400002001400100000F08B50848084B036023
:1005A4004FF4E133436000238360C36003610C2292
:1005B40042618361C36101F037FB08BDB4000020D0
:1005C4000044004030B583B004460D460846FFF7AA
:1005D400FFFD0A2382B22946204601F054FB40F66F
:1005E4000D23ADF804300A23022201A9204601F0AC
:1005F4004AFB03B030BD000010B594B03022002196
:1006040008A801F0FFFB00240394049405940694C5
:1006140007940194164B1A6C42F080521A641B6CB6
:1006240003F080530193019B0294124A136823F44C
:10063400404343F400431360136803F440430293BC
:10064400029B0223089301230B9310230C930E9413
:1006540008A800F0D5FB0F23039304940594069493
:100664000794214603A800F011FE14B010BD00BF8A
:10067400003802400070004008B501F047F8FFF769
:10068400BBFFFFF729FFFFF75BFFFFF785FF084874
:1006940001F078F9074C08492046FFF793FF074813
:1006A40000F0B4F906492046FFF78CFFFEE700BFCF
:1006B40074000020B4000020301E00082C0000202C
:1006C400401E00087047FEE7FEE7FEE7FEE77047BE
:1006D4007047704708B501F033F808BD08B5024803
:1006E40000F01DFA08BD00BF2C00002008B5064824
:1006F40000F010FA82B2054B1A80D2B208210448E5
:1007040000F06EFF08BD00BF2C0000202800002070
:100714000004024008B5024801F029F808BD00BFF2
:100724007400002082B0002100910B4B5A6C42F4FB
:1007340080425A645A6C02F480420092009A0191F9
:100744001A6C42F080521A641B6C03F080530193BC
:10075400019B02B0704700BF0038024010B588B05A
:10076400002303930493059306930793026803F10C
:10077400804303F590339A4201D008B010BD0024A1
:10078400019403F58C335A6C42F480725A645A6CA7
:1007940002F480720192019A02941A6B42F00102EF
:1007A4001A631B6B03F001030293029B012303935F
:1007B40003230493059403A9054800F03DFE224653
:1007C4002146122000F024FF122000F055FFD4E748
:1007D400000002400368B3F1804F00D0704700B5B9
:1007E40083B00021019103F50E331A6C42F001022B
:1007F4001A641B6C03F001030193019B0A461C203D
:1008040000F006FF1C2000F037FF03B05DF804FB86
:1008140000B589B0002303930493059306930793CB
:100824000268154B9A4202D009B05DF804FB00221D
:10083400019203F5FA33196C41F400311964196C0F
:1008440001F40031019101990292196B41F0010107
:1008540019631B6B03F001030293029B0C230393A4
:10086400022304930592032306930723079303A902
:10087400024800F0E1FDD7E70044004000000240D8
:100884004A4B5A6822F440325A605A6841680A4313
:100894005A600268536823F4807353600268536893
:1008A400016943EA012353600268536823F04073EB
:1008B40053600268536881680B435360026893680D
:1008C40023F40063936002689368C1680B439360E8
:1008D400826A374B9A4257D00268936823F0706358
:1008E400936002689368816A0B439360026893681B
:1008F40023F04053936002689368C16A0B4393608A
:100904000268936823F00203936002689368017E8F
:1009140043EA4103936090F82030002B3FD00268F3
:10092400536843F4006353600268536823F46043DC
:10093400536001684B68426A013A43EA42334B60B0
:100944000268D36A23F47003D3620168CB6AC26974
:10095400013A43EA0253CB620268936823F40073BA
:1009640093600268936890F8301043EA41239360DF
:100974000268936823F48063936002689368416912
:1009840043EA8123936070470268936823F070639D
:1009940093600268936823F040539360B0E7026861
:1009A400536823F400635360CAE700BF0023014087
:1009B4000100000F38B310B50446036C43B1236C37
:1009C40013F0100F0BD00120002384F83C3010BD2D
:1009D400FFF7C4FE0023636484F83C30EFE7236C24
:1009E40023F4885323F0020343F0020323642046D4
:1009F400FFF746FF00206064236C23F0030343F0F9
:100A040001032364E0E701207047000082B0002363
:100A1400019390F83C30012B6AD0012380F83C30DC
:100A240003689A6812F0010F13D19A6842F0010228
:100A34009A60344B1B68344AA2FB03239B0C03EBE0
:100A44004303019302E0019B013B0193019B002BB3
:100A5400F9D10268936813F0010F4BD0036C23F4AF
:100A6400E06323F0010343F480730364536813F4D5
:100A7400806F05D0036C23F4405343F48053036424
:100A8400036C13F4805F20D0436C23F006034364AB
:100A9400002380F83C306FF022031360026853682F
:100AA40043F0806343F020035360184B5B6813F0FA
:100AB4001F0F0DD103689A6812F0405F1DD19A6828
:100AC40042F080429A60002015E000234364DFE78F
:100AD40003680F4A934201D000200CE09A6812F098
:100AE400405F0CD19A6842F080429A60002002E094
:100AF400022000E0002002B070470020FBE7002045
:100B0400F9E700BF0800002083DE1B4300230140F7
:100B1400002001400368D86C70477047704738B5AF
:100B2400044602681168536811F0020F2FD003F0D5
:100B3400200363B3036C13F0100F03D1036C43F46D
:100B440000730364936813F0405F19D1237EBBB92B
:100B5400D36A13F4700F03D0936813F4806F0FD12A
:100B6400536823F020035360236C23F480732364BD
:100B7400236C13F4805F03D1236C43F001032364DB
:100B84002046FFF7B3FD23686FF012021A60236852
:100B940019685A6802F0800211F0040F36D0002A56
:100BA40034D0226C12F0100F03D1226C42F40052A4
:100BB40022649A6812F4401F21D19A6B12F4401FE8
:100BC40003D09A6812F4806F19D15A6812F4806FB6
:100BD40015D19A6812F0405F11D1227E7AB95A6811
:100BE40022F080025A60236C23F480532364236C24
:100BF40013F4807F03D1236C43F001032364204664
:100C040000F0FCF823686FF00C021A602268116887
:100C1400536803F0400311F0010F04D01BB11368B3
:100C240013F0010F09D122681168536803F080633F
:100C340011F0200F00D063B938BD236C43F4803326
:100C440023642046FFF769FF23686FF001021A60EE
:100C5400E9E7636C43F0020363646FF020051560F9
:100C64002046FFF75BFF23681D60E5E730B482B0E0
:100C74000023019390F83C30012B00F0B78001234E
:100C840080F83C300B68092B3ED90568EA689BB2B2
:100C940003EB43031E3B072404FA03F322EA030392
:100CA400EB600568EA688C680B8803EB43031E3B22
:100CB40004FA03F31343EB604B68062B3AD8056838
:100CC4006A6B03EB8303053B1F2404FA03F322EA54
:100CD40003036B6305686A6B4B6803EB8303053B93
:100CE4000C8804FA03F313436B630268404B9A4283
:100CF40050D002683E4B9A4255D0002380F83C30D5
:100D0400184602B030BC704705682A699BB203EBF1
:100D14004303072404FA03F322EA03032B6105685F
:100D24002A698C680B8803EB430304FA03F3134327
:100D34002B61C1E70C2B16D805682A6B03EB8303E0
:100D4400233B1F2404FA03F322EA03032B630568FD
:100D54002A6B4B6803EB8303233B0C8804FA03F3ED
:100D640013432B63C1E70568EA6A03EB8303413B42
:100D74001F2404FA03F322EA0303EB620568EA6A18
:100D84004B6803EB8303413B0C8804FA03F31343DE
:100D9400EB62AAE70B68122BABD1164A536843F4F3
:100DA40080035360A5E70B68103B012BA5D8114ABB
:100DB400536843F4000353600B68102B9DD10E4B12
:100DC4001B6802F1467202F52E3202F28332A2FB54
:100DD40003239B0C03EB83035B00019302E0019B61
:100DE400013B0193019B002BF9D186E7022088E7A0
:100DF400002001400023014008000020704700004B
:100E0400002800F0D98170B582B00446036813F05D
:100E1400010F3BD0A64B9B6803F00C03042B2CD092
:100E2400A34B9B6803F00C03082B21D06368B3F534
:100E3400803F4FD0B3F5A02F52D09D4B1A6822F4B7
:100E440080321A601A6822F480221A606368002BC8
:100E540050D000F081FC0546954B1B6813F4003F0D
:100E640014D100F079FC401B6428F5D90320AAE1D1
:100E74008F4B5B6813F4800FD8D08D4B1B6813F431
:100E8400003F03D06368002B00F09881236813F0BF
:100E9400020F54D0864B9B6813F00C0F3ED0844B4A
:100EA4009B6803F00C03082B33D0E368002B67D056
:100EB400804B01221A6000F04FFC05467C4B1B68F6
:100EC40013F0020F53D100F047FC401B0228F5D960
:100ED400032078E1764A136843F480331360B5E75E
:100EE400734B1A6842F480221A601A6842F4803202
:100EF4001A60ABE700F030FC05466D4B1B6813F439
:100F0400003FC3D000F028FC401B6428F5D903201F
:100F140059E1674B5B6813F4800FC6D1644B1B68BF
:100F240013F0020F03D0E368012B40F04981604ABB
:100F3400136823F0F803216943EAC10313602368AB
:100F440013F0080F40D0636963B35B4B01221A604E
:100F540000F002FC0546564B5B6F13F0020F33D1D1
:100F640000F0FAFB401B0228F5D903202BE1504A7C
:100F7400136823F0F803216943EAC1031360DEE731
:100F84004C4B00221A6000F0E7FB0546484B1B68F7
:100F940013F0020FD3D000F0DFFB401B0228F5D979
:100FA400032010E1444B00221A6000F0D5FB0546F3
:100FB4003F4B5B6F13F0020F06D000F0CDFB401BDC
:100FC4000228F5D90320FEE0236813F0040F78D03B
:100FD400374B1B6C13F0805F0DD100230193344B0E
:100FE4001A6C42F080521A641B6C03F08053019314
:100FF400019B012500E00025304B1B6813F4807F22
:1010040021D0A368012B32D0052B36D0284B1A6F80
:1010140022F001021A671A6F22F004021A67A36809
:10102400002B34D000F098FB0646214B1B6F13F0C5
:10103400020F45D100F090FB801B41F288339842A7
:10104400F3D90320BFE01D4A136843F4807313608F
:1010540000F082FB0646194B1B6813F4807FD0D145
:1010640000F07AFB801B0228F5D90320ABE0104A7C
:10107400136F43F001031367D1E70D4B1A6F42F06E
:1010840004021A671A6F42F001021A67C7E700F0F8
:1010940063FB0646064B1B6F13F0020F10D000F0E3
:1010A4005BFB801B41F288339842F3D903208AE02A
:1010B4000038024000004742800E47420070004062
:1010C400E5B9A369002B7DD0464A926802F00C0270
:1010D400082A51D0022B17D0434B00221A6000F08B
:1010E4003BFB04463F4B1B6813F0007F42D000F0EB
:1010F40033FB001B0228F5D9032064E0394A136C42
:1011040023F080531364DCE7374B00221A6000F0AD
:1011140023FB0546334B1B6813F0007F06D000F019
:101124001BFB401B0228F5D903204CE0E369226A2B
:101134001343626A43EA8213A26A5208013A43EAF9
:101144000243E26A43EA0263264A5360264B0122C1
:101154001A6000F001FB0446224B1B6813F0007F69
:1011640006D100F0F9FA001B0228F5D903202AE081
:10117400002028E0002026E0012B26D0194B5B68D4
:1011840003F48001E269914221D103F03F02216A14
:101194008A421ED1616A47F6C0721A408A421AD145
:1011A40003F44032A16A8A4217D103F07063E26A01
:1011B400934214D1002006E001207047012002E090
:1011C400012000E0002002B070BD0120FBE70120F7
:1011D400F9E70120F7E70120F5E70120F3E7012013
:1011E400F1E700BF0038024060004742F8B5244BE5
:1011F4009B6803F00C03042B3DD0082B3DD1204BFE
:101204005A6802F03F025B6813F4800F12D01C4B43
:101214005968C1F3881100231A48A1FB0001FEF7A5
:10122400DFFF174B5B68C3F3014301335B00B0FB83
:10123400F3F023E0124B5B68C3F388135C010025D1
:10124400E41A65F10005AE0146EA9466A701381B6D
:1012540066EB0501CC0044EA5074C500E81844F17B
:1012640000018B0243EA905384022046194600236E
:10127400FEF7B6FFD5E7034800E00348F8BD00BF1A
:101284000038024040787D010024F400002800F07A
:101294009B8070B50D4604464F4B1B6803F00F034B
:1012A4008B4208D2CBB24C4A1370136803F00F037D
:1012B4008B4240F08B80236813F0020F17D013F099
:1012C400040F04D0454A936843F4E05393602368C1
:1012D40013F0080F04D0414A936843F460439360C9
:1012E4003E4A936823F0F003A1680B43936023689C
:1012F40013F0010F32D06368012B21D09A1E012A0A
:1013040025D9364A126812F0020F61D033498A682F
:1013140022F0030213438B6000F01EFA06462F4BA3
:101324009B6803F00C036268B3EB820F16D000F0E5
:1013340013FA801B41F288339842F0D9032042E02B
:10134400264A126812F4003FE0D101203BE0234A10
:10135400126812F0007FD9D1012034E01E4B1B68C3
:1013640003F00F03AB4207D9EAB21B4B1A701B6898
:1013740003F00F03AB422DD1236813F0040F06D002
:10138400164A936823F4E053E1680B43936023689F
:1013940013F0080F07D0114A936823F460432169BE
:1013A40043EAC1039360FFF721FF0C4B9B68C3F32F
:1013B40003130B4AD35CD8400A4B18600A4B1868D5
:1013C40000F07EF9002070BD012070470120FAE78B
:1013D4000120F8E70120F6E7003C02400038024013
:1013E400481E00080800002004000020014B186873
:1013F400704700BF0800002008B5FFF7F7FF044B53
:101404009B68C3F38223034AD35CD84008BD00BF62
:1014140000380240581E000808B5FFF7E7FF044BE8
:101424009B68C3F34233034AD35CD84008BD00BF72
:1014340000380240581E000800230F2B00F2C7801A
:10144400F0B583B039E0042200E00022B2403A4310
:1014540002345F4E46F824205E4A1468EA4324EAC4
:1014640005064F6817F4803F01D045EA0406594C3D
:101474002660646802EA04064F6817F4003F01D04E
:1014840045EA0406534C6660A46802EA04064F6801
:1014940017F4801F01D045EA04064E4CA660E468A8
:1014A40022404E6816F4001F01D045EA0402494C5C
:1014B400E26001330F2B00F2888001229A400C680D
:1014C40004EA020532EA0404F3D14C68661E012ED4
:1014D40003D9112C01D0122C12D186685F00032489
:1014E400BC4026EA0406CC68BC40344384604668A9
:1014F40026EA02064C68C4F300129A403243426062
:10150400C7685E000324B440E24327EA04078C68FA
:10151400B4403C43C4604C68022C01D0122C13D15B
:10152400DF08083750F827E003F007044FEA840C7B
:101534000F2404FA0CF42EEA040E0C6904FA0CF4D9
:1015440044EA0E0440F82740046814404A6802F054
:101554000302B240224302604A6812F0805FA8D0BE
:10156400002201921C4A546C44F480445464526C2A
:1015740002F480420192019A9C08A61C144A52F873
:10158400267003F0030296000F22B24027EA0207F6
:10159400124A90423FF459AF02F5806290420ED055
:1015A40002F5806290420CD002F5806290420AD02B
:1015B40002F5806290423FF446AF072246E70122DB
:1015C40044E7022242E7032240E703B0F0BD70473C
:1015D40000380140003C0140003802400000024055
:1015E4000AB181617047090481617047074AD36871
:1015F40023F4E0631B041B0C000200F4E0600343CB
:1016040043F0BF6343F40033D360704700ED00E060
:1016140030B4174BDB68C3F30223C3F10704042C73
:1016240028BF04241D1D062D18D9033B4FF0FF3598
:1016340005FA04F421EA0401994005FA03F322EAC5
:101644000303194300280BDB0901C9B200F1604010
:1016540000F5614080F8001330BC70470023E5E7D3
:1016640000F00F000901C9B2024B1954F4E700BF9E
:1016740000ED00E014ED00E0002807DB00F01F029D
:10168400400901239340024A42F82030704700BFCA
:1016940000E100E00138B0F1807F0AD2064B5860C7
:1016A400064AF02182F823100020986007221A606D
:1016B40070470120704700BF10E000E000ED00E03B
:1016C40010B504460E4B18784FF47A73B3FBF0F35D
:1016D4000C4A1068B0FBF3F0FFF7DCFF68B90F2C7D
:1016E40001D901200AE0002221464FF0FF30FFF724
:1016F4008FFF054B1C60002000E0012010BD00BFDF
:1017040000000020080000200400002008B50B4B56
:101714001A6842F400721A601A6842F480621A600D
:101724001A6842F480721A600320FFF75FFF0020FA
:10173400FFF7C6FFFEF7F6FF002008BD003C02409D
:10174400034A1168034B1B780B441360704700BFB6
:10175400F400002000000020014B1868704700BF0F
:10176400F40000207047704770477047704710B509
:10177400044603681A6912F0020F11D0DA6812F0F5
:10178400020F0DD06FF002021A6101230377036880
:101794009B6913F0030F70D0FFF7E6FF0023237754
:1017A40023681A6912F0040F12D0DA6812F0040FD9
:1017B4000ED06FF004021A610223237723689B6919
:1017C40013F4407F5FD02046FFF7CEFF002323773A
:1017D40023681A6912F0080F12D0DA6812F0080FA1
:1017E4000ED06FF008021A61042323772368DB69A3
:1017F40013F0030F4ED02046FFF7B6FF00232377E4
:1018040023681A6912F0100F12D0DA6812F0100F60
:101814000ED06FF010021A61082323772368DB6966
:1018240013F4407F3DD02046FFF79EFF002323772B
:1018340023681A6912F0010F03D0DA6812F0010F5D
:1018440036D123681A6912F0800F03D0DA6812F0D7
:10185400800F34D123681A6912F0400F03D0DA687C
:1018640012F0400F32D123681A6912F0200F03D00E
:10187400DA6812F0200F30D110BDFFF774FF204654
:10188400FFF773FF8AE72046FFF76DFF2046FFF757
:101894006CFF9BE72046FFF766FF2046FFF765FFD6
:1018A400ACE72046FFF75FFF2046FFF75EFFBDE78A
:1018B4006FF001021A612046FFF754FFC1E76FF091
:1018C40080021A61204600F078F8C3E76FF0400206
:1018D4001A612046FFF74AFFC5E76FF020021A613C
:1018E400204600F069F8C7E70368254A90420ED005
:1018F400B0F1804F0BD0A2F57C42904207D002F5A4
:101904008062904203D002F58062904203D123F0BA
:1019140070034A6813431A4A90421AD0B0F1804FB8
:1019240017D0A2F57C42904213D002F58062904217
:101934000FD002F5806290420BD002F59A329042A9
:1019440007D002F58062904203D002F58062904293
:1019540003D123F44073CA68134323F080034A6914
:10196400134303608B68C3620B688362044B984221
:1019740002D00123436170470B690363F9E700BF99
:1019840000000140B0B110B5044690F83D3063B199
:10199400022384F83D30214651F8040BFFF7A4FFDD
:1019A400012384F83D30002010BD80F83C30FEF760
:1019B40011FFEDE70120704770477047054BD3F8DE
:1019C400882042F47002C3F888204FF000629A60C5
:1019D400704700BF00ED00E070B50446026813696B
:1019E40023F44053C1680B431361836802691343B2
:1019F40042691343C2691A430168CB6823F416434E
:101A040023F00C031343CB600268536923F440733F
:101A140081690B435361C369B3F5004F36D0036842
:101A2400654A934200F09A8002F58062934200F086
:101A34009580FFF7E1FC0026051846EB06012D18FA
:101A440046EB0101CB0043EA5573EA0015461946FB
:101A540063689A009B0F281846EB0101FEF7C0FB50
:101A6400564DA5FB00325109642303FB11031B01EE
:101A74003233A5FB03235B0903F0F00202EB0112EE
:101A840003F00F03216813448B6093E003684A4A10
:101A9400934233D002F5806293422FD0FFF7ACFC1F
:101AA4000026051846EB06012D1846EB0101CB0074
:101AB40043EA5573EA00154619466268334692189C
:101AC40046EB0303281846EB0101FEF789FB3B4D67
:101AD400A5FB00325109642303FB1103DB003233FD
:101AE400A5FB03235B095A0002F4F87202EB01120E
:101AF40003F00703216813448B605BE0FFF78CFC61
:101B04000026051846EB06012D1846EB0101CB0013
:101B140043EA5573EA00154619466268334692183B
:101B240046EB0303281846EB0101FEF759FB234D4E
:101B3400A5FB00325109642303FB1103DB0032339C
:101B4400A5FB03235B095A0002F4F87202EB0112AD
:101B540003F00703216813448B602BE0FFF75CFC60
:101B64000026051846EB06012D1846EB0101CB00B3
:101B740043EA5573EA001546194663689A009B0FB9
:101B8400281846EB0101FEF72BFB0C4DA5FB003298
:101B94005109642303FB11031B013233A5FB032307
:101BA4005B0903F0F00202EB011203F00F0321685A
:101BB40013448B6070BD00BF001001401F85EB51C2
:101BC4002DE9F84305460F4616469946DDF8208070
:101BD4002C68246837EA04030CBF01240024B442AF
:101BE4001FD1B8F1FF3FF3D0B8F1000F05D0FFF7D4
:101BF400B3FDA0EB09004045EAD92A68D36823F471
:101C0400D073D3602A68536923F0010353612023FE
:101C140085F8393085F83A30002385F838300320C8
:101C240000E00020BDE8F88358B310B5044690F8EE
:101C340039300BB3242384F839302268D36823F471
:101C44000053D3602046FFF7C7FE2268136923F4CC
:101C5400904313612268536923F02A035361226875
:101C6400D36843F40053D3600020E063202384F856
:101C7400393084F83A3010BD80F83830FEF7C8FDAA
:101C8400D8E7012070472DE9F04383B01E4690F851
:101C94003930DBB2202B59D104460D469046002939
:101CA40058D0002A58D090F83830012B56D0012350
:101CB40080F838304FF00009C0F83C90212380F8B8
:101CC4003930FFF749FD0746A4F82480A4F826809C
:101CD40084F8389017E000963B4600228021204685
:101CE400FFF76EFF00283BD12B882268C3F308035B
:101CF400536023690BB9023505E0013503E015F89B
:101D0400012B23685A60E38C9BB29BB1E28C92B2A4
:101D1400013A92B2E284A368B3F5805FDBD0009607
:101D24003B46002280212046FFF74AFF0028E6D0E8
:101D340003200CE000963B46002240212046FFF79A
:101D44003FFF78B9202384F8393000E0022003B043
:101D5400BDE8F0830120FAE70120F8E70220F6E766
:101D64000320F4E70320F2E7DFF834D0002103E096
:101D74000C4B5B58435004310B480C4B42189A42AD
:101D8400F6D30B4A02E0002342F8043B094B9A4283
:101D9400F9D3FFF713FE00F011F8FEF76DFC70475E
:101DA40000800120701E0008000000200C000020AC
:101DB4000C000020F8000020FEE7000070B50D4D77
:101DC4000D4C641BA4100026A64209D10B4D0C4CEB
:101DD40000F020F8641BA4100026A64205D170BDB3
:101DE40055F8043B98470136EEE755F8043B98470D
:101DF4000136F2E7681E0008681E0008681E000825
:101E04006C1E000802440346934200D1704703F855
:101E1400011BF9E7F8B500BFF8BC08BC9E46704743
:0C1E2400F8B500BFF8BC08BC9E46704733
:101E300053657474696E672075702E2E2E2E000007
:101E4000446F6E650000000000000000000000000C
:101E50000102030406070809000000000102030450
:081E6000B4E3FF7F0100000064
:041E6800B9010008B4
:041E6C0095010008D4
:0C1E700001000000100000000024F4003D
:0400000508001D6D65
:00000001FF
